:020000040800F2
:10000000000002209D020008A3020008A7020008C9
:10001000F1020008F50200083D030008000000009E
:10002000000000000000000000000000014A00087D
:100030008903000800000000A14A0008B942000836
:10004000C9340008C9340008C9340008C93400089C
:10005000C9340008C9340008C9340008C93400088C
:10006000C9340008C9340008C9340008C93400087C
:10007000C9340008C9340008C9340008C93400086C
:10008000C9340008C9340008C9340008C93400085C
:10009000C9340008C9340008C9340008C93400084C
:1000A000C9340008C9340008C9340008C93400083C
:1000B000C9340008C9340008C9340008C93400082C
:1000C000C9340008C9340008C9340008C93400081C
:1000D000C9340008C9340008C9340008C93400080C
:1000E000C9340008C9340008C9340008C9340008FC
:1000F000C9340008C9340008C9340008C9340008EC
:10010000C9340008C9340008C9340008C9340008DB
:10011000C9340008C9340008C1420008C9340008C5
:10012000C9340008C9340008C9340008C9340008BB
:10013000C9340008C9340008C9340008C9340008AB
:10014000C9340008C9340008C9340008D142000885
:10015000C9340008C9340008C9340008C93400088B
:10016000C9340008C9340008C9340008C93400087B
:10017000C9340008C9340008C93400080000000070
:10018000C9340008C934000800B583B003F00CF985
:10019000304B314A1360314A1360314B314A03E02E
:1001A00011681960043304322F498B42F8D32A4B6B
:1001B0001A682E4B9A4200D0FEE7284B1A682C4B47
:1001C0009A42F9D1234B2B4A13602B4A13602B4BD5
:1001D00002E000221A600433294A9342F9D3254BE6
:1001E0001B6813B9244B1B6803B1FEE703F0EEF85C
:1001F000694601A803F0B4F8224B234CE41AA4107A
:100200000025AC4214DC214B214CE41AA41000253B
:10021000AC4213DC0099019803F0E0FD05461D4B4C
:100220001D4CE41AA410002C0EDC284603F074F8D0
:10023000144B53F8253098470135E2E7134B53F838
:10024000253098470135E3E7013C124B53F8243041
:100250009847E8E7BABADECA00000020CC010020C7
:1002600000000020046B0008D001002078563412F2
:1002700032547698D0010020704B0020D00100202D
:10028000744B0020C8030008C8030008C803000816
:10029000C8030008C8030008C803000808B5FFF732
:1002A00073FF00BEFEE71EF0040F0CBFEFF30880E3
:1002B000EFF309807146374A10472DE9F04182B0CB
:1002C00004468846084B5E6B9F6B9D6A074803F0A7
:1002D0004FF8CDF800803B4632462946204603F0D1
:1002E00079F800BEFEE700BF00ED00E040690008BD
:1002F00000BEFEE71EF0040F0CBFEFF30880EFF323
:1003000009807146244A10472DE9F04182B0044625
:100310008846084B5E6B9F6B9D6A074803F028F880
:10032000CDF800803B4632462946204603F052F87D
:1003300000BEFEE700ED00E0506900081EF0040F6B
:100340000CBFEFF30880EFF309807146134A1047A2
:100350002DE9F04182B004468846084B5E6B9F6BE6
:100360009D6A074803F004F8CDF800803B4632460A
:100370002946204603F02EF800BEFEE700ED00E01F
:100380005C69000800BEFEE700BEFEE700BEFEE7B7
:1003900070470000BB020008090300085103000871
:1003A000046B000800000020D0010020046B00084E
:1003B0000000001000000010D0010020744B00204D
:0803C000000000100000001015
:1003D00008B50B4B1A6842F400721A601A6842F4AE
:1003E00080621A601A6842F480721A60032000F07A
:1003F000B9F9002003F022FF03F050FD002008BDF2
:10040000003C0240024A136801331360704700BF8A
:10041000B43F0020014B1868704700BFB43F002074
:1004200030B583B00190FFF7F5FF0546019CB4F1AC
:10043000FF3F00D00134FFF7EDFF401BA042FAD38D
:1004400003B030BD4C4B5A6822F440325A605A68AF
:1004500041680A435A600268536823F4807353600A
:1004600002685368016943EA0123536002685368D4
:1004700023F0407353600268536881680B435360F4
:100480000268936823F40063936002689368C1680C
:100490000B439360826A394B9A4249D00268936851
:1004A00023F07063936002689368816A0B439360E2
:1004B0000268936823F04053936002689368C16AAE
:1004C0000B4393600268936823F002039360026811
:1004D0009368816943EA41039360036A002B32D138
:1004E0000268536823F4006353600268D36A23F4FC
:1004F0007003D3620168CB6AC269013A43EA0253CE
:10050000CB620268936823F4007393600268936877
:10051000016B43EA412393600268936823F480638C
:10052000936002689368416943EA8123936070474E
:100530000268936823F0706393600268936823F005
:1005400040539360BEE70268536843F4006353600E
:100550000268536823F460435360436A013B4FF4DD
:10056000604292FAA2F2B2FA82F2934002685168B3
:100570000B435360B9E700BF002301400100000FA7
:1005800030B310B50446036C43B1236C13F0100F65
:100590000AD00120002384F83C3010BD436480F869
:1005A0003C3003F0ABFCF0E7236C23F4885323F0DA
:1005B000020343F0020323642046FFF743FF0020B9
:1005C0006064236C23F0030343F001032364E1E739
:1005D0000120704730B482B00023019390F83C3082
:1005E000012B00F0B780012380F83C300B68092B09
:1005F0003ED90568EA689BB203EB43031E3B072420
:1006000004FA03F322EA0303EB600568EA688C68E6
:100610000B8803EB43031E3B04FA03F31343EB6025
:100620004B68062B3AD805686A6B03EB8303053BDE
:100630001F2404FA03F322EA03036B6305686A6B61
:100640004B6803EB8303053B0C8804FA03F3134365
:100650006B630268404B9A4250D002683E4B9A420C
:1006600055D0002380F83C30184602B030BC7047AB
:1006700005682A699BB203EB4303072404FA03F3DA
:1006800022EA03032B6105682A698C680B8803EB57
:10069000430304FA03F313432B61C1E70C2B16D871
:1006A00005682A6B03EB8303233B1F2404FA03F33F
:1006B00022EA03032B6305682A6B4B6803EB830371
:1006C000233B0C8804FA03F313432B63C1E705684B
:1006D000EA6A03EB8303413B1F2404FA03F322EA93
:1006E0000303EB620568EA6A4B6803EB8303413B53
:1006F0000C8804FA03F31343EB62AAE70B68122B8E
:10070000ABD1164A536843F480035360A5E70B68E6
:10071000103B012BA5D8114A536843F400035360E2
:100720000B68102B9DD10E4B1B6802F1467202F52F
:100730002E3202F28332A2FB03239B0C03EB8303D2
:100740005A00019202E0019B013B0193019B002BA7
:10075000F9D186E7022088E700200140002301400C
:100760000C000020074AD36823F4E0631B041B0C31
:10077000000200F4E060184340F0BF6040F4003035
:10078000D060704700ED00E030B4164BDB68C3F377
:100790000223C3F10704042C28BF04241D1D062DC9
:1007A00017D9033B012505FA04F4013C2140994087
:1007B00005FA03F3013B1340194300280BDB090141
:1007C000C9B200F1604000F5614080F8001330BC10
:1007D00070470023E6E700F00F000901C9B2024BA1
:1007E0001954F4E700ED00E014ED00E0420900F0D8
:1007F0001F00012303FA00F0014B43F82200704769
:1008000000E100E00138B0F1807F0AD2064B586069
:10081000F021064A82F823100020986007221A600F
:1008200070470120704700BF10E000E000ED00E0DD
:10083000042805D0054A136823F0040313607047A9
:10084000024A136843F004031360704710E000E0AD
:10085000F0B583B000244BE04FEAD40E0EF1080E41
:1008600050F82E2004F00706B6000F27B74022EA02
:1008700007020F6907FA06F6324340F82E2046E0D9
:10088000072600E0002606FA0EF6324302335E4EDB
:1008900046F823205D4B1A68EB4302EA03064F68D3
:1008A00017F4803F01D045EA0206584A16605268A4
:1008B00003EA02064F6817F4003F01D045EA02063A
:1008C000524A5660926803EA02064F6817F4801F86
:1008D00001D045EA02064D4A9660D26813404E6840
:1008E00016F4001F01D045EA0203484AD3600134E0
:1008F0000F2C00F286800123A3400A6803EA020558
:10090000AB42F4D14A68022AA6D0122AA4D00668C3
:100910004FEA440E032202FA0EF2D24316404F6809
:1009200007F0030707FA0EF73E4306604E68771E8E
:10093000012F03D9112E01D0122E0FD18668164037
:10094000CF6807FA0EF73E438660466826EA03033F
:100950004E68C6F30016A64033434360C3681A408E
:100960008B6803FA0EF31A43C2604B6813F0805F82
:10097000BDD000230193264B5A6C42F480425A6446
:100980005B6C03F480430193019BA3089E1C1E4AE9
:1009900052F8262004F003064FEA860E0F2606FAC8
:1009A0000EF622EA06021B4FB8423FF46BAF1A4E16
:1009B000B0421AD006F58066B04218D006F58066BF
:1009C000B04216D006F58066B04214D006F58066B7
:1009D000B04212D006F58066B04210D006F58066AF
:1009E000B0423FF44DAF08264DE701264BE7022603
:1009F00049E7032647E7042645E7052643E7062699
:100A000041E703B0F0BD00BF00380140003C0140A9
:100A1000003802400000024000040240036919420D
:100A200001D1002070470120704712B9090481618B
:100A300070478161704743695940416170470000C8
:100A4000002800F0828038B5044690F83D30002B35
:100A500041D0242384F83D302268136823F0010339
:100A6000136001F085F83A4BA3FB00239B0C22682E
:100A7000536021686568374A954231D801330B626B
:100A800021686368334A934234D85B00B0FBF3F0CB
:100A9000C0F30B03032B00D80420C8612268E3696C
:100AA000216A0B43136022682369E1680B4393605A
:100AB00022686369A1690B43D3602268136843F01D
:100AC0000103136000202064202384F83D3020635C
:100AD00084F83E0038BD80F83C3003F06BFAB8E78C
:100AE0004FF4967202FB03F31B4AA2FB03239B09FC
:100AF0000133C4E7A5688DB903EB4302B0FBF2F202
:100B0000C2F30B02B2FA82F25209E2B995B903EBD1
:100B10004303B0FBF3F040F40040BEE703EB830275
:100B200002EB8202B0FBF2F2C2F30B02B2FA82F2E3
:100B30005209EAE703EB830303EB8303B0FBF3F013
:100B400040F44040A9E70120A7E70120704700BF1B
:100B500083DE1B43A0860100D34D62102DE9F043D4
:100B600083B007460D46D0F80080CA00521A9300A1
:100B70000344DE6C1A6DB61A1B6C9E4200D91E46E9
:100B800006F103094FEA990915E006F103094FEA56
:100B90009909EB005B1B9C003C44616C3B7C00931F
:100BA000B3B2EAB2404602F073FA636C3344636452
:100BB000236D33442365414608EB451303F5106369
:100BC0009B699BB2994512D2EA00521B93003B44A9
:100BD0001A6DDB6C9A420AD24BB19E1AC5EBC50264
:100BE00093003B441B6C9E42CFD91E46CDE73EB9D5
:100BF0000123AB40D1F8345825EA0305C1F8345835
:100C0000002003B0BDE8F08300286BD0F0B58BB0B6
:100C10000446032380F8B93303F0BCFB206801F0DD
:100C200082FE254655F8107B6E460FCD0FC60FCDC0
:100C30000FC695E8030086E80300231D0ECB384657
:100C400001F02DFE0021206801F073FE002210E06B
:100C5000D100891A8B002344012183F8391083F8CD
:100C60003820DA87002183F83B1019645964D9646D
:100C700001320E2AECD9002218E0D100891A8B002B
:100C80002344002183F8F91183F8F821DA8783F8E7
:100C9000FB11C3F80012C3F80412C3F80C12236846
:100CA00002F1400003EB8003596001320E2AE4D9BF
:100CB000254655F8107B6E460FCD0FC60FCD0FC6DB
:100CC00095E8030086E80300231D0ECB384601F0AB
:100CD00047FE012384F8B933206802F084FA00202B
:100CE0000BB0F0BD0120704790F8B833012B01D153
:100CF0000220704710B50446012380F8B83300681D
:100D000002F065FA206801F008FE002084F8B803BC
:100D100010BD00002DE9F04704460768384602F090
:100D200099FA08B1BDE8F0870646206802F067FA34
:100D30000028F7D0206802F062FA10F0020F04D009
:100D40002268536903F002035361206802F057FAE6
:100D500010F4002F75D13546206802F050FA10F4D7
:100D6000802F40F0D280206802F049FA0028C0F2BB
:100D70003E81206802F043FA10F4006F0AD0D7F8E1
:100D8000083813F0010F40F041812268536903F4E1
:100D900000635361206802F032FA10F4805F40F083
:100DA0003981206802F02BFA10F4005F40F0828154
:100DB000206802F024FA10F0100F14D02268936912
:100DC00023F0100393613E6A06F00F08C6F3434315
:100DD000022B00F00382062B00F021822268936927
:100DE00043F010039361206802F009FA10F0080F35
:100DF00040F02982206802F002FA10F4801F40F0CF
:100E00002B82206802F0FBF910F4001F40F02E82C4
:100E1000206802F0F4F910F0804F40F03182206831
:100E200002F0EDF910F0040F3FF47CAF23685D6829
:100E300015F0040F40F02D8223685A6815435D6059
:100E400070E7206802F0DFF98046354621E0E900CE
:100E5000491B8A002244D2F800121B69C3F3120313
:100E6000C91AC2F81012D2F80012D2F804320B4498
:100E7000C2F8043228E019F0080F3DD119F0100F24
:100E800004D007EB45131022C3F8082B01354FEAB5
:100E90005808B8F1000F3FF45FAF18F0010FF5D01C
:100EA0005FFA85FA5146206802F0BDF9814610F0DC
:100EB000010FE0D007EB45130122C3F8082B03F51F
:100EC00030632269012AC2D05146204603F0A6FAB7
:100ED0002369012BCFD1002DCDD1C5EBC5029300E5
:100EE0002344D3F80C32002BC5D104F56F720121D5
:100EF000206802F0CFF9BEE7204603F087FA07EB3F
:100F000045130822C3F8082BB8E7206802F083F9DC
:100F1000804635462EE0EA00521B93002344196CAC
:100F20005A6C0A445A6446E019F0080F04D007EBE3
:100F300045130822C3F8082919F0100F04D007EB55
:100F400045131022C3F8082919F0400F04D007EB0D
:100F500045134022C3F8082919F0020F04D007EB0B
:100F600045130222C3F8082919F0800F3AD1013540
:100F70004FEA5808B8F1000F3FF4F5AE18F0010F32
:100F8000F5D05FFA85FA5146206802F055F981469E
:100F900010F0010FC8D0012202FA05F0D7F834385A
:100FA00023EA0003C7F8343807EB4513C3F80829D0
:100FB00023699342AFD05146204603F03BFA2369A0
:100FC000012BB1D1002DAFD1C5EBC5029300234455
:100FD000DB6C002BA8D104F56F720121206802F0B0
:100FE00059F9A1E729462046FFF7B8FDBFE7D7F832
:100FF000043823F00103C7F80438204603F054FAFC
:101000002268536903F000435361B2E6204603F0BF
:1010100033FABAE6B84607F50069D9F8043023F088
:101020000103C9F804301021206801F041FD07E0F8
:1010300008EB4613FF22C3F80829C3F8082B013632
:1010400063689E42F4D34FF0FF33C9F81830D9F8E3
:101050001C3043F00113C9F81C30236BEBB1D9F8F5
:10106000843043F00B03C9F88430D9F8443043F09E
:101070000B03C9F84430D7F8003823F4FE63C7F8EF
:10108000003804F56F72217C206802F003F92268B1
:10109000536903F48053536183E6D9F8143043F065
:1010A0000B03C9F81430D9F8103043F00B03C9F81A
:1010B0001030E0E7206802F0D1F82268D36823F40A
:1010C0007053D360206801F020FD90B90023E360E5
:1010D0004FF4007363612268D36843F41053D36004
:1010E000204603F0B8F92268536903F400535361B2
:1010F0005EE60323E3604023636100F033FD674B4A
:101100000344674A934205D82268D36843F4705376
:10111000D360E5E7634B0344634A934205D82268F2
:10112000D36843F46053D360DAE7A0F57403A3F502
:1011300010535E4A934205D82268D36843F4505353
:10114000D360CDE7A0F18373A3F5E743584A9342F8
:1011500005D82268D36843F44053D360C0E7554BA9
:101160000344554A934205D82268D36843F4305368
:10117000D360B5E7514B0344514A934205D82268E6
:10118000D36843F42053D360AAE74E4B03444E4A3E
:10119000934205D82268D36843F41053D3609FE785
:1011A000A0F1B773A3F55853484A934205D8226873
:1011B000D36843F40053D36092E7454B0344454A58
:1011C000934205D82268D36843F4E053D36087E79D
:1011D0002268D36843F4C053D36081E747F6F073C5
:1011E0001E423FF4FBAD36094FEAC80AAAEB0803DA
:1011F0004FEA8309A144C6F30A02D9F8041238461B
:1012000001F05AFFC6F30A06D9F804323344C9F88C
:101210000432D9F810321E44C9F81062DEE5082203
:1012200004F56F71384601F047FFC6F30A164FEA1E
:10123000C803A3EB08018A002244D2F810321E44EE
:10124000C2F81062CAE5204603F0FFF8226853692D
:1012500003F008035361CDE5E9B2204603F030F90D
:101260002268536903F480135361CAE5E9B220464A
:1012700003F020F92268536903F400135361C7E5B2
:10128000204603F023F92268536903F08043536139
:10129000C5E5204603F020F9CEE500BF405327FF07
:1012A000FF340C00401E1BFF3F420F007F4F120017
:1012B0001FD6130060B6E5FE5FE3160000D3CEFE36
:1012C0003F771B00C05BB3FEBF9121001F75380044
:1012D000E05459FEDF9C410090F8B833012B01D156
:1012E0000220704710B50446012380F8B833006827
:1012F00001F05DFF002084F8B80310BD70B54DB259
:10130000002D18DB01F07F06C6EBC606B40004F51D
:10131000FC74044401F07F012170ED0F6570A26040
:10132000E37005B1E180022B0DD090F8B833012BAA
:101330000CD1022070BD01F07F06C6EBC606B400DA
:1013400038340444E6E700232371EEE70546012321
:1013500080F8B8332146006801F0F7FB002085F8DB
:10136000B80370BD10B54AB2002A12DB01F07F0449
:10137000C4EBC404A30003F5FC73034401F07F0134
:101380001970D20F5A7090F8B823012A09D102209F
:1013900010BD01F07F04C4EBC404A3003833034440
:1013A000ECE70446012280F8B8231946006801F0F2
:1013B00015FC002084F8B80310BD70B501F07F065D
:1013C000F500A91B8C0004F5FC740119AD1BAC00E1
:1013D0000444C4F80422C4F80C320023C4F81032C8
:1013E00084F8F93184F8F8610369012B06D066B1FD
:1013F000DAB2006801F06AFC002070BDC6EBC605D9
:10140000AC000444C4F80822F1E7DAB2006801F045
:101410008FFDF1E701F00F01C1EBC1018B00184412
:10142000B0F81002704770B501F07F06F500A91BF7
:101430008C0038340119AD1BAC0004446264E364D1
:1014400000232365012384F8393084F83860036968
:10145000012B06D05EB1DAB2006801F037FC002043
:1014600070BDC6EBC605AC000444A264F2E7DAB274
:10147000006801F05DFDF2E738B54AB2002A12DBE0
:10148000C1EBC104A30003F5FC73034401249C7069
:1014900001F07F041C70D20F5A7090F8B823012A13
:1014A00009D1022038BD01F07F04C4EBC404A300BD
:1014B00038330344EAE70546012280F8B823194689
:1014C000006801F00DFE1CB1002085F8B80338BD9E
:1014D00005F56F72297C286801F0DCFEF4E710B591
:1014E0004AB2002A12DBC1EBC104A30003F5FC736E
:1014F000034400249C7001F07F011970D20F5A70D0
:1015000090F8B823012A09D1022010BD01F07F0410
:10151000C4EBC404A30038330344EAE704460122C1
:1015200080F8B8231946006801F00CFE002084F80A
:10153000B80310BD30B40468606A29B10D46A36ACF
:1015400000EB134000230CE040EA0240A06212E0EE
:1015500003F1400104EB8101496800EB11400133C4
:10156000DBB2691E8B42F3DB40EA024005F13F012A
:1015700004EB81014860002030BC70470368596269
:101580000020704730B583B00446036813F0010FA4
:101590003BD0A94B9B6803F00C03042B2CD0A64B2B
:1015A0009B6803F00C03082B21D06368B3F5803FE0
:1015B0004FD0B3F5A02F52D09F4B1A6822F480323F
:1015C0001A601A6822F480221A606368002B50D0D7
:1015D000FEF720FF0546984B1B6813F4003F14D11B
:1015E000FEF718FF401B6428F5D9032099E1924BC0
:1015F0005B6813F4800FD8D08F4B1B6813F4003F47
:1016000003D06368002B00F08981236813F0020F78
:101610005BD0894B9B6813F00C0F3ED0864B9B68C8
:1016200003F00C03082B33D0E368002B74D00122A5
:10163000824B1A60FEF7EEFE05467F4B1B6813F0E7
:10164000020F5AD1FEF7E6FE401B0228F5D903200F
:1016500067E1794A136843F480331360B5E7764B4A
:101660001A6842F480221A601A6842F480321A60C2
:10167000ABE7FEF7CFFE05466F4B1B6813F4003F48
:10168000C3D0FEF7C7FE401B6428F5D9032048E10C
:10169000694B5B6813F4800FC6D1674B1B6813F06E
:1016A000020F04D0E368012B01D0012039E1624828
:1016B000036823F0F8032169F82292FAA2F2B2FA41
:1016C00082F201FA02F213430360236813F0080F59
:1016D00046D0636993B30122594B1A60FEF79AFE14
:1016E0000546554B5B6F13F0020F39D1FEF792FEA2
:1016F000401B0228F5D9032013E14F48036823F06B
:10170000F8032169F82292FAA2F2B2FA82F201FAFF
:1017100002F213430360D8E70022484B1A60FEF739
:1017200079FE0546444B1B6813F0020FCDD0FEF73F
:1017300071FE401B0228F5D90320F2E00022404B45
:101740001A60FEF767FE05463B4B5B6F13F0020F16
:1017500006D0FEF75FFE401B0228F5D90320E0E02B
:10176000236813F0040F20D1A369002B00F0D88068
:10177000314A926802F00C02082A00F0D480022B51
:1017800000F0808000222F4B1A60FEF743FE0446D3
:10179000294B1B6813F0007F00F0BE80FEF73AFE75
:1017A000001B0228F4D90320BBE000230193224B45
:1017B0001A6C42F080521A641B6C03F08053019340
:1017C000019B214A136843F480731360FEF722FEE5
:1017D00005461D4B1B6813F4807F06D1FEF71AFEE9
:1017E000401B0228F5D903209BE0A368012B1DD0E4
:1017F000052B2BD0104B1A6F22F001021A671A6FBB
:1018000022F004021A67A36853B3FEF703FE0546ED
:10181000094B1B6F13F0020FA6D1FEF7FBFD401B17
:1018200041F288339842F3D903207AE0024A136FD9
:1018300043F001031367E6E7003802400000474227
:10184000800E47426000474200700040374B1A6FDD
:1018500042F004021A671A6F42F001021A67D2E7D7
:10186000FEF7D8FD0546314B1B6F13F0020F3FF416
:101870007BAFFEF7CFFD401B41F288339842F2D98F
:1018800003204EE000222A4B1A60FEF7C3FD0546F6
:10189000264B1B6813F0007F06D0FEF7BBFD401BF4
:1018A0000228F5D903203CE0E369226A1343616A08
:1018B00047F6C07292FAA2F2B2FA82F201FA02F28A
:1018C0001343A26A5208013A4FF4403191FAA1F150
:1018D000B1FA81F18A401343E16A4FF0706292FAE3
:1018E000A2F2B2FA82F201FA02F213430F4A5360F3
:1018F00001220F4B1A60FEF78DFD04460B4B1B684F
:1019000013F0007F06D1FEF785FD001B0228F5D9F4
:10191000032006E0002004E0002002E0012000E0B7
:10192000002003B030BD0120FBE700BF00380240BB
:1019300060004742214B9B6803F00C03042B3AD014
:10194000082B01D01E4870471C4B586800F03F0020
:101950005B6813F4800F1ED01A4AB2FBF0F2174BEB
:10196000586847F6C073184093FAA3F3B3FA83F3A9
:10197000D84000FB02F0114B5B6803F440334FF496
:10198000403292FAA2F2B2FA82F2D34001335B0003
:10199000B0FBF3F070470A4AB2FBF0F2074B58680D
:1019A00047F6C073184093FAA3F3B3FA83F3D84011
:1019B00000FB02F0DFE70348704700BF0038024039
:1019C0000024F40000127A00624B1B6803F00F033E
:1019D0008B4209D2CBB25F4A1370136803F00F0336
:1019E000994201D00120704770B5036813F0020FCF
:1019F00006D0594A936823F0F00384682343936028
:101A00000D460446036813F0010F64D04368012BB0
:101A100026D09A1E012A2AD94F4A126812F0020FC4
:101A200000F096804C498A6822F0030213438B60D1
:101A3000FEF7F0FC06466368012B1FD0022B2CD06A
:101A4000032B39D0444B9B6813F00C0F43D0FEF7A7
:101A5000E1FC801B41F288339842F3D9032070BD2A
:101A60003D4A126812F4003FDCD1012070BD3A4AB1
:101A7000126812F0007FD5D1012070BD364B9B68F3
:101A800003F00C03042B26D0FEF7C4FC801B41F2AC
:101A900088339842F2D9032070BD2F4B9B6803F026
:101AA0000C03082B17D0FEF7B5FC801B41F28833DE
:101AB0009842F2D9032070BD274B9B6803F00C03BA
:101AC0000C2B08D0FEF7A6FC801B41F2883398420D
:101AD000F2D9032070BD1F4B1B6803F00F039D421A
:101AE00009D2EAB21B4B1A701B6803F00F039D4228
:101AF00001D0012070BD236813F0040F06D0164AF0
:101B0000936823F4E053E1680B439360236813F078
:101B1000080F07D0104A936823F46043216943EA11
:101B2000C1039360FFF706FF0B4B9B6803F0F003C4
:101B3000F02292FAA2F2B2FA82F2D340074AD35CC0
:101B4000D840074B1860002002F078FB002070BDE1
:101B5000012070BD003C0240003802406C69000862
:101B60000C000020014B1868704700BF0C000020DB
:101B700008B5FFF7F7FF074B9B6803F4E0534FF4FA
:101B8000E05292FAA2F2B2FA82F2D340024AD35C55
:101B9000D84008BD003802407C69000808B5FFF74E
:101BA000E1FF074B9B6803F460434FF4604292FAF5
:101BB000A2F2B2FA82F2D340024AD35CD84008BD06
:101BC000003802407C6900080F2303600B4B9A68C1
:101BD00002F0030242609A6802F0F00282609A68A2
:101BE00002F4E052C2609B68DB0803F4E053036137
:101BF000034B1B6803F00F030B6070470038024073
:101C0000003C024000283BD010B50446002383620C
:101C100090F85130002B2ED0022384F851302268E6
:101C2000136823F04003136022686368A1680B43C4
:101C3000E1680B4321690B4361690B43A16901F41E
:101C400000710B43E1690B43216A0B43A16A0B430B
:101C500013602268638B03F00403616A0B435360D3
:101C60002268D36923F40063D361002060650123F7
:101C700084F8513010BD80F8503002F0C7F9CBE73E
:101C80000120704730B4036A23F001030362036A42
:101C90004468826922F073020D682A4323F002032C
:101CA0008D682B430F4DA8421AD005F58065A842D8
:101CB00014D000255DB123F00803CD682B4323F039
:101CC000040324F440744D692C438D692C43446013
:101CD00082614A684263036230BC70470125E9E7CC
:101CE0000125E7E70000014030B4036A23F4807364
:101CF0000362036A4468C26922F073020D682A43D2
:101D000023F400738D6843EA0523114DA8421DD0CA
:101D100005F58065A84217D0002575B123F400634E
:101D2000CD6843EA052323F4806324F440544D69CD
:101D300044EA05148D6944EA05144460C2614A68A6
:101D4000C263036230BC70470125E6E70125E4E782
:101D50000000014030B4036A23F480530362036A35
:101D60004468C26922F4E6420D6842EA052223F47F
:101D700000538D6843EA05330C4DA84213D005F596
:101D80008065A8420DD0002525B124F480444D691A
:101D900044EA85144460C2614A680264036230BC4C
:101DA00070470125F0E70125EEE700BF0000014084
:101DB00010B4036A046A24F001040462846924F004
:101DC000F00444EA021223F00A030B438261036227
:101DD0005DF8044B704710B4036A23F010030362EC
:101DE0008469036A24F4704444EA023223F0A003B5
:101DF00043EA0113826103625DF8044B7047836814
:101E000023F0700341F007010B438360704710B467
:101E1000846824F47F4442EA032319430C4384601A
:101E20005DF8044B704710B50268936823F07003A7
:101E30004C68234323F007030C68234393604B68EB
:101E4000502B1FD00AD9602B22D0702B25D10B69C3
:101E50008A68C9680068FFF7DAFF10BD402B10D10F
:101E600003681C6A1A6A22F001021A620268936906
:101E700023F0F003096943EA0113936103681C62CC
:101E800010BD10BD0A6989680068FFF791FF10BD99
:101E90000A6989680068FFF79EFF10BD0268D36871
:101EA00043F00103D3600268136843F00103136039
:101EB00000207047704790F83830012B7DD010B566
:101EC0000446012380F83830022380F83930026854
:101ED000936823F47F4323F0770393600B68402BD0
:101EE00057D010D9702B3ED01FD8502B47D0602B25
:101EF00032D1CA6849680068FFF76DFF6021206829
:101F0000FFF77DFF28E0102B4DD008D9202B4FD0B4
:101F1000302B21D130210068FFF771FF1CE0DBB9C5
:101F200000210068FFF76BFF16E0B3F5805F0ED06D
:101F3000B3F5005F10D1CB684A6889680068FFF785
:101F400066FF2268936843F48043936004E002686C
:101F5000936823F007039360012384F8393000204D
:101F600084F8380010BDCB684A6889680068FFF7BC
:101F70004EFF2268936843F077039360ECE7CA68EA
:101F800049680068FFF714FF50212068FFF737FF0A
:101F9000E2E7CA6849680068FFF70AFF4021206845
:101FA000FFF72DFFD8E710210068FFF728FFD3E7E0
:101FB00020210068FFF723FFCEE70220704738B5E5
:101FC00090F83830012B01D1022038BD044601259C
:101FD00080F83850022380F83930FFF724FF226858
:101FE000D36823F04003D3602268D36823F480438E
:101FF000D36084F83950002084F8380038BD704729
:1020000070477047704710B5044603681A6912F0AC
:10201000020F11D0DA6812F0020F0DD06FF0020239
:102020001A610123037603689B6913F0030F70D0D4
:10203000FFF7E6FF0023237623681A6912F0040FE6
:1020400012D0DA6812F0040F0ED06FF004021A6199
:102050000223237623689B6913F4407F5FD02046D8
:10206000FFF7CEFF0023237623681A6912F0080FCA
:1020700012D0DA6812F0080F0ED06FF008021A6161
:10208000042323762368DB6913F0030F4ED0204628
:10209000FFF7B6FF0023237623681A6912F0100FAA
:1020A00012D0DA6812F0100F0ED06FF010021A6121
:1020B000082323762368DB6913F4407F3DD0204654
:1020C000FFF79EFF0023237623681A6912F0010FA1
:1020D00003D0DA6812F0010F36D123681A6912F0C2
:1020E000800F03D0DA6812F0800F34D123681A69A8
:1020F00012F0400F03D0DA6812F0400F32D123689B
:102100001A6912F0200F03D0DA6812F0200F30D1D4
:1021100010BDFFF774FF2046FFF773FF8AE72046E4
:10212000FFF76DFF2046FFF76CFF9BE72046FFF7A8
:1021300066FF2046FFF765FFACE72046FFF75FFF2D
:102140002046FFF75EFFBDE76FF001021A612046EF
:1021500001F068FBC1E76FF080021A61204600F0D1
:10216000CBF9C3E76FF040021A612046FFF74AFF40
:10217000C5E76FF020021A61204600F0BCF9C7E7FE
:102180000368454A90424AD0B0F1804F49D0A2F549
:102190007C42904247D002F58062904245D002F5E1
:1021A0008062904243D002F57842904235D00022BE
:1021B0001AB123F070034A681343374A90423AD069
:1021C000B0F1804F50D0A2F57C4290424ED002F543
:1021D000806290424CD002F5806290424AD002F573
:1021E0007842904248D002F57052904246D002F5B3
:1021F0008062904244D002F58062904242D0A2F5C3
:102200009832904240D002F5806290423ED002F572
:10221000806290420DD000220EE00122C8E7012228
:10222000C6E70122C4E70122C2E70122C0E701227A
:10223000BEE7012200E001221AB123F44073CA680C
:10224000134303608B68C3620B688362124B98422E
:1022500020D003F5806398421AD000230BB10B699C
:1022600003630123436170470122E5E70122E3E7AD
:102270000122E1E70122DFE70122DDE70122DBE7BE
:102280000122D9E70122D7E70122D5E70122D3E7CE
:102290000123E3E70123E1E700000140A8B110B505
:1022A000044690F839305BB1022384F83930211D9F
:1022B0002068FFF765FF012384F83930002010BD46
:1022C00080F8383001F0EEFEEEE701207047A8B14B
:1022D00010B5044690F839305BB1022384F83930E8
:1022E000211D2068FFF74CFF012384F839300020BE
:1022F00010BD80F83830FFF7DDFDEEE701207047B4
:1023000030B4036A23F010030362036A44688269ED
:1023100022F4E6420D6842EA052223F020038D688C
:1023200043EA0513114DA8421DD005F58065A8426A
:1023300017D0002575B123F08003CD6843EA05135B
:1023400023F0400324F440644D6944EA85048D6918
:1023500044EA8504446082614A688263036230BC57
:1023600070470125E6E70125E4E700BF00000140D2
:1023700038B590F83830012B66D00D46044601235D
:1023800080F83830022380F839300C2A1AD8DFE878
:1023900002F00719191920191919341919194700C8
:1023A0000068FFF76FFC2268936943F008039361AC
:1023B0002268936923F00403936122689369296971
:1023C0000B439361012384F83930002084F83800EE
:1023D00038BD0068FFF794FF2268936943F40063F7
:1023E00093612268936923F48063936122689369FF
:1023F000296943EA01239361E4E70068FFF774FC6D
:102400002268D36943F00803D3612268D36923F0BB
:102410000403D3612268D36929690B43D361D1E7EF
:102420000068FFF797FC2268D36943F40063D36127
:102430002268D36923F48063D3612268D369296950
:1024400043EA0123D361BDE7022038BD90F838305C
:10245000012B22D030B4012280F83820022380F8EA
:1024600039300468636823F070036360046863684C
:102470000D682B4363600468A36823F08003A360A6
:102480000468A36849680B43A36080F839200023DF
:1024900080F83830184630BC70470220704790F8FA
:1024A0003830012B25D0012380F83830CB6823F455
:1024B00040738A68134323F480634A68134323F408
:1024C00000630A68134323F480530A69134323F417
:1024D00000534A69134323F480438A69134323F466
:1024E0000043134302685364002380F838301846D1
:1024F0007047022070477047704700002DE9F04791
:1025000004460268136923F44053C1680B43136106
:102510000168CB6823F4164323F00C03826800693A
:10252000024360690243E06902431343CB602268BF
:10253000536923F44073A1690B435361E369B3F515
:10254000004F62D0D4F80080BB4B984500F01B814F
:1025500003F58063984500F01681FFF709FB00EB57
:10256000800000EB80006568AD00B0FBF5F5B34F6F
:10257000A7FB05356D092E01FFF7FAFA00EB800085
:1025800000EB80006568AD00B0FBF5FAFFF7F0FAEC
:1025900000EB800000EB80006568AD00B0FBF5F556
:1025A000A7FB05356D094FF0640909FB15A52D0141
:1025B0003235A7FB05356D0905F0F0053544FFF709
:1025C000D7FA00EB800000EB80006668B600B0FB35
:1025D000F6F6FFF7CDFA00EB800000EB80006368B1
:1025E0009B00B0FBF3F0A7FB0030400909FB10692A
:1025F0004FEA091909F13209A7FB0937C7F3431755
:102600002F44C8F80870BDE8F087D4F8008003F1C3
:10261000804303F5104398455CD003F580639845EB
:1026200058D0FFF7A5FA00EB800000EB800065684A
:102630006D00B0FBF5F5814FA7FB05356D092E0147
:10264000FFF796FA00EB800000EB800065686D00F4
:10265000B0FBF5FAFFF78CFA00EB800000EB80008E
:1026600065686D00B0FBF5F5A7FB05356D094FF00A
:10267000640909FB15A5ED003235A7FB05356D0989
:102680006D0005F4F8753544FFF772FA00EB800031
:1026900000EB800066687600B0FBF6F6FFF768FA9C
:1026A00000EB800000EB800063685B00B0FBF3F39D
:1026B000A7FB03235B0909FB13694FEAC90909F169
:1026C0003209A7FB0937C7F342172F44C8F808702F
:1026D000BDE8F087FFF762FA00EB800000EB8000B6
:1026E00065686D00B0FBF5F5544FA7FB05356D0926
:1026F0002E01FFF753FA00EB800000EB80006568C5
:102700006D00B0FBF5FAFFF749FA00EB800000EB33
:10271000800065686D00B0FBF5F5A7FB05356D0918
:102720004FF0640909FB15A5ED003235A7FB05350F
:102730006D096D0005F4F8753544FFF72FFA00EBCD
:10274000800000EB800066687600B0FBF6F6FFF7CD
:1027500025FA00EB800000EB800063685B00B0FBB3
:10276000F3F3A7FB03235B0909FB13694FEAC909CC
:1027700009F13209A7FB0937C7F342172F44C8F8FC
:102780000870BDE8F087FFF709FA00EB800000EB66
:1027900080006568AD00B0FBF5F5284FA7FB053557
:1027A0006D092E01FFF7FAF900EB800000EB8000C5
:1027B0006568AD00B0FBF5FAFFF7F0F900EB8000BB
:1027C00000EB80006568AD00B0FBF5F5A7FB0535B3
:1027D0006D094FF0640909FB15A52D013235A7FBE2
:1027E00005356D0905F0F0053544FFF7D7F900EB25
:1027F000800000EB80006668B600B0FBF6F6FFF7DD
:10280000CDF900EB800000EB800063689B00B0FB1B
:10281000F3F3A7FB03235B0909FB13694FEA0919CB
:1028200009F13209A7FB0937C7F343172F44C8F84A
:102830000870BDE8F08700BF001001401F85EB5114
:1028400058B310B5044690F839300BB3242384F8FC
:1028500039302268D36823F40053D3602046FFF751
:102860004DFE2268136923F4904313612268536973
:1028700023F02A0353612268D36843F40053D360E2
:102880000020E063202384F8393084F83A3010BD0A
:1028900080F8383001F0A8FCD8E70120704784B0F8
:1028A00010B5044603A880E80E00089B012B11D048
:1028B000E36843F04003E360204600F00FFD4FF46F
:1028C0008033A363069B012B1ED00020BDE810407F
:1028D00004B07047A36B23F48033A363E36823F44D
:1028E000840323F04003E360E36823F44013E360D0
:1028F0000F9B012B03D0204600F0F0FCE2E7E368D9
:1029000043F48013E360F6E7A36843F00603A36093
:10291000A36843F02003A360D7E7836843F0010373
:10292000836000207047836823F0010383600020E8
:10293000704708B5C36823F0C043C360012909D0BC
:1029400019B9C36843F08043C3603220FDF768FDC6
:10295000002008BDC36843F00053C360F5E70000E2
:1029600084B0F8B5054607A880E80E00119F1FBB8C
:10297000AB6B43F40013AB632C460023C5F8003E59
:1029800005F50066D5F80038C5F800380C9B012B1A
:1029900017D00321284600F0B1F81021284600F096
:1029A00087F8284600F098F80023336173614FF0F0
:1029B000FF32B261F36119E0AB6B43F40023AB6308
:1029C000DAE7099B23B90021284600F097F8E4E7ED
:1029D0000121284600F092F8DFE74FF09040C2F85E
:1029E000000900220A61FF228A60013307998B42A5
:1029F0000BD204EB431202F51061D2F80009002853
:102A0000EBDB0020C2F80009EBE7002308E04FF001
:102A1000904EC2F800EB00220261FF228260013377
:102A20008B420DD204EB431202F53060D2F800EB7A
:102A3000BEF1000FEBDB4FF0000EC2F800EBEAE74F
:102A4000336923F4807333610A9B012B1AD000226F
:102A5000AA616FF080426A611BB9AB6943F0100351
:102A6000AB61AA69104B1343AB610D9B1BB1AB6902
:102A700043F00803AB61012F0ED00020BDE8F84001
:102A800004B07047094A3263326B42F4803242F03C
:102A900003023263326BDAE7AB6943F0804343F001
:102AA0000403AB61E9E700BF00383C80000180000F
:102AB000890141F02001016100230133054A93425D
:102AC00005D8026912F0200FF7D1002070470320CB
:102AD000704700BF400D0300102303610023013342
:102AE000054A934205D8026912F0100FF7D1002071
:102AF00070470320704700BF400D0300D0F8003836
:102B00001943C0F8001800207047D0F8083800F5C5
:102B1000006013F0060F10D0836803F00603022B49
:102B20000DD0836803F00603062B0AD0836803F0F8
:102B30000603042B07D000207047002070470320B5
:102B40007047032070470220704730B44B78012B48
:102B500022D0D0F81C380D780122AA4043EA024363
:102B6000C0F81C380B7800EB4310D0F8003B13F48E
:102B7000004F0ED1D0F8003B8A68C2F30A02C97830
:102B800042EA8142134343F0805343F40043C0F8C8
:102B9000003B002030BC7047D0F81C280D78AB40BB
:102BA0009BB21343C0F81C380C7800EB4410D0F8EB
:102BB000003913F4004FECD1D0F800398A68C2F321
:102BC0000A02C97842EA814242EA8452134343F03E
:102BD000805343F40043C0F80039DAE738B54B7846
:102BE000012B36D00B78044600EB4313D3F8002BAF
:102BF00022F40042C3F8002B0B7800EB43134FF094
:102C00000062C3F8002B0B7800EB43134FF08042B7
:102C1000C3F8002B002201322B4B9A4252D80B787A
:102C200004EB431303F530639B6813F0100FF2D1EC
:102C3000D0F8043843F48063C0F80438D0F81C3866
:102C4000097801228A4023EA0243C0F81C38002098
:102C500038BD0B78044600EB4313D3F8002922F467
:102C60000042C3F800290B7800EB43134FF00062D9
:102C7000C3F800290B7800EB43134FF08042C3F8F0
:102C8000002900220132104B9A4219D80B7804EB2C
:102C9000431303F510639B6813F0804FF2D10D4688
:102CA00004461021FFF704FFD4F81C2829780123DB
:102CB0008B409BB222EA0303C4F81C38002038BDC5
:102CC000032038BD032038BD400D030070B582B02D
:102CD0004B78012B3ED00B7800EB4313D3F8104B0D
:102CE000E40CE404C3F8104B0B7800EB4313D3F867
:102CF000104B24F0FF5424F4C014C3F8104B4B695C
:102D0000002B40F0D4800B7800EB4313D3F8104B2A
:102D10008D68C5F312052C43C3F8104B0B7800EBFC
:102D20004313D3F8104B44F40024C3F8104B012A8A
:102D300000F0DC80CB78012B00F0DF800B7800EB1B
:102D40004310D0F8003B43F00443C0F8003B0020A0
:102D500002B070BD4B696BBB0B7800EB4313D3F82B
:102D6000104924F0FF5424F4C014C3F810490B7820
:102D700000EB4313D3F8104944F40024C3F810497E
:102D80000B7800EB4313D3F81049E40CE404C3F8C8
:102D90001049012A54D0CB78012B57D04B69002B16
:102DA00054D0D0F834380E780124B4402343C0F80E
:102DB00034384BE00B7800EB4313D3F81049E40CA4
:102DC000E404C3F810490B7800EB4313D3F810491F
:102DD00024F0FF5424F4C014C3F810490C7800EB1D
:102DE0004414D4F810594B698E683344013BB3FB4B
:102DF000F6F34E4E06EAC3432B43C4F810390B7862
:102E000000EB4313D3F810494D69C5F312052C4369
:102E1000C3F81049CB78012BBBD10B7800EB4313DF
:102E2000D3F8104924F0C044C3F810490B7800EBE4
:102E30004313D3F8104944F00054C3F81049A8E7ED
:102E40000B7800EB43130C69C3F81449CB78012BC2
:102E500014D00B7800EB4313D3F8004944F004443A
:102E6000C3F80049CB78012B7FF471AF14468B8AED
:102E70000A78C968009400F00BF968E7D0F80838C0
:102E800013F4807F09D10B7800EB4313D3F800498A
:102E900044F00054C3F80049DBE70B7800EB431320
:102EA000D3F8004944F08054C3F80049D1E78C6856
:102EB0002344013BB3FBF4F30C7800EB4414D4F847
:102EC000105B1A4E06EAC3463543C4F8105B0C7813
:102ED00000EB4414D4F8106B8D689BB205FB03F52E
:102EE000C5F312053543C4F8105B20E70B7800EBFF
:102EF0004313CA68C3F8142B1CE7D0F8083813F43E
:102F0000807F09D10B7800EB4313D3F8002B42F0FC
:102F10000052C3F8002B11E70B7800EB4313D3F8F2
:102F2000002B42F08052C3F8002B07E70000F81F87
:102F300030B44B78012B39D00B7800EB4313D3F826
:102F4000104BE40CE404C3F8104B0B7800EB431374
:102F5000D3F8104B24F0FF5424F4C014C3F8104BE2
:102F60004B690BB18B684B610B7800EB4313D3F8C3
:102F7000104B44F40024C3F8104B0B7800EB4313C0
:102F8000D3F8104B8D68C5F312052C43C3F8104BD2
:102F9000012A76D00B7800EB4310D0F8003B43F0C9
:102FA0000443C0F8003B002030BC70474B699BBB1A
:102FB0000B7800EB4313D3F8104924F0FF5424F4AA
:102FC000C014C3F810490B7800EB4313D3F8104931
:102FD00044F40024C3F810490B7800EB4313D3F8F2
:102FE0001049E40CE404C3F810490B7800EB4313D8
:102FF000D3F8004944F00444C3F80049012A39D009
:103000004B69002BCFD0D0F83438097801228A40A0
:103010001343C0F83438C6E70B7800EB4313D3F8FA
:103020001049E40CE404C3F810490B7800EB431397
:10303000D3F8104924F0FF5424F4C014C3F8104905
:103040004C698B689C4200D94B610B7800EB4313B1
:10305000D3F8104944F40024C3F810490B7800EB6E
:103060004313D3F810494D69C5F312052C43C3F837
:103070001049BAE70B7800EB43100B69C0F814391C
:1030800091E70B7800EB4313CA68C3F8142B81E770
:1030900070B49DF80C4064B903339E0807E000EB60
:1030A000023303F5805351F8045B1D600134B442D0
:1030B000F5D3002070BC704703329208002393427E
:1030C0000CD210B400F58054246841F8044B01334D
:1030D0009342F7D308465DF8044B704708467047A3
:1030E0004B78012B17D00B7800EB4313D3F8002B50
:1030F000002A05DBD3F8002B22F08042C3F8002B16
:103100000B7800EB4310D0F8003B43F40013C0F8F9
:10311000003B002070470B7800EB4313D3F80029E5
:10312000002A05DBD3F8002922F08042C3F80029E9
:103130000B7800EB4310D0F8003943F40013C0F8CB
:103140000039E6E74B78012B0FD00B7800EB4313E7
:10315000D3F8002B22F40012C3F8002BCB78023BEB
:10316000DBB2012B19D9002070470B7800EB431319
:10317000D3F8002922F40012C3F80029CB78023BCF
:10318000DBB2012BEFD80B7800EB4310D0F80039FD
:1031900043F08053C0F80039E5E70B7800EB4310AB
:1031A000D0F8003B43F08053C0F8003BDBE7D0F899
:1031B000003823F4FE63C0F80038D0F80038090165
:1031C00001F4FE610B43C0F800380020704708B5D9
:1031D000D0F8043823F00203C0F804380320FDF7C8
:1031E0001FF9002008BD08B5D0F8043843F00203E9
:1031F000C0F804380320FDF713F9002008BD426928
:10320000806910407047D0F8183800F50060C06938
:103210001840000C7047D0F8183800F50060C069FD
:10322000184080B2704700EB4111D1F8082B00F52F
:103230000060406910407047D0F81028D0F834384A
:10324000CB40DB01DBB2134300EB4111D1F808099D
:1032500018407047406900F001007047D0F800390D
:1032600023F4FF6323F00703C0F8003900F500637F
:103270009A6802F00602042A05D05A6842F4807265
:103280005A6000207047D0F8002942F00302C0F8CD
:103290000029F2E710B40024C0F8104BD0F8104B0E
:1032A00044F40024C0F8104BD0F8104B44F018043C
:1032B000C0F8104BD0F8104B44F0C044C0F8104B8D
:1032C000012903D000205DF8044B7047C0F8142B8F
:1032D0004FF08023C0F8003BF4E7000000230133E7
:1032E0000C4A934211D80269002AF8DA036943F0C4
:1032F0000103036100230133064A934207D80269A0
:1033000012F0010FF7D1002070470320704703200F
:10331000704700BF400D0300FEE7000008B50346FC
:103320000C4A12685AB10B4A1068033323F00303A6
:103330000344094A934206D8064A136008BD074968
:10334000044A1160EFE702F0C3FD0C2303604FF065
:10335000FF3008BDD401002000FC0120744B002088
:1033600001230360014B0B60704700BF0400002085
:103370000FB400B583B004AB53F8042B0193802144
:10338000064802F0BFFE002803DD0146034800F0B6
:1033900007F803B05DF804EB04B07047DC010020CF
:1033A0004FF0FF307047000008B500F08FF8054B74
:1033B000054A9A60D3F8882042F47002C3F8882046
:1033C00008BD00BF00ED00E00000000808B500F0F7
:1033D000A3F808BDF8B504460D4617461E46274813
:1033E000FFF7C6FF21682648FFF7C2FF616825483E
:1033F000FFF7BEFFA1682448FFF7BAFFE168234842
:10340000FFF7B6FF21692248FFF7B2FF6169214843
:10341000FFF7AEFFA1692048FFF7AAFFE1691F4847
:10342000FFF7A6FF1E48FFF7A3FF29461D48FFF739
:103430009FFF1D4CE16A1D48FFF79AFF216B1C4856
:10344000FFF796FFE16B1B48FFF792FF15F0800F27
:103450000AD115F4004F0CD11748FFF789FF0699E0
:103460001648FFF785FFF8BD39461548FFF780FF7E
:10347000EFE731461348FFF77BFFEDE724680008CC
:10348000346800084468000854680008646800084C
:10349000746800088468000894680008A46800083C
:1034A000B4680008C068000800ED00E0D0680008BB
:1034B000E0680008F0680008206900082869000832
:1034C0000069000810690008FEE700000F49D1F804
:1034D000883043F47003C1F888300D4B1A6842F00D
:1034E00001021A60002098601A6822F0847222F4A7
:1034F00080321A60074A5A601A6822F480221A60E1
:10350000D8604FF000638B60704700BF00ED00E0B3
:103510000038024010300024224B9B6803F00C035B
:10352000042B14D0082B16D01BB11F4A1F4B1A6056
:1035300002E01D4A1D4B1A601A4B9B68C3F303132C
:103540001B4AD15C194A1368CB4013607047194A73
:10355000164B1A60F0E7134B5A685B6803F03F03A1
:1035600012F4800F13D0134AB2FBF3F20D4B5B68D9
:10357000C3F3881303FB02F30A4A5268C2F3014201
:1035800001325200B3FBF2F3084A1360D4E7064A53
:10359000B2FBF3F2034B5B68C3F3881303FB02F344
:1035A000EAE700BF003802400024F4000C000020CD
:1035B0006C69000840787D01704700002DE9F04FEC
:1035C0008DB000240194654B1A6B42F010021A630F
:1035D0001A6B02F010020192019A02941A6B42F0E7
:1035E00004021A631A6B02F004020292029A039414
:1035F0001A6B42F080021A631A6B02F08002039287
:10360000039A04941A6B42F001021A631A6B02F0D7
:1036100001020492049A05941A6B42F002021A63A2
:103620001A6B02F002020592059A06941A6B42F098
:1036300008021A631B6B03F008030693069BDFF86E
:103640002881224649F6FF714046FDF7EEF9444EC7
:1036500022464FF40F513046FDF7E7F9DFF80CA191
:10366000224641F623715046FDF7DFF93D4F2246D1
:1036700043F69F713846FDF7D8F949F6FF73079373
:103680000125089509940A9407A94046FDF7E0F83A
:103690004FF40F530793089509940A9407A93046ED
:1036A000FDF7D6F8212307934FF00309CDF82090BA
:1036B000099407A93046FDF7CBF81E230793DFF8DE
:1036C000B0B0CDF820B0099407A93046FDF7C0F896
:1036D0000795CDF820B00994A6F5006607A93046F5
:1036E000FDF7B6F87E230793CDF82090099407A93B
:1036F0003046FDF7ADF841F623730793089509941A
:103700000A9407A95046FDF7A3F8042307930894E9
:10371000099407A95046FDF79BF84FF4C04307935F
:10372000CDF82090099407A94046FDF791F843F69B
:103730009F730793089509940A9407A93846FDF7E3
:1037400087F84FF4004307930894099407A9384673
:10375000FDF77EF80DB0BDE8F08F00BF00380240E5
:1037600000080240000C0240001002400004024029
:103770000000111010B5084C4FF400512046FDF721
:103780005AF94FF4FA7001F084FA4FF400512046D0
:10379000FDF744F9EFE700BF0008024000B583B031
:1037A000084B93E8030002AB03E90300684602F00C
:1037B00075FC81B2684600F0D7FDC82001F069FAB7
:1037C000F4E700BFD469000800B583B00123ADF869
:1037D00002300E4BDB680DF1020101A898479DF8FD
:1037E0000430542BF5D10D238DF805300A238DF8C4
:1037F000063001A802F052FC81B201A800F0B4FD2D
:103800004FF4967001F045FAE3E700BF1000002086
:1038100008B500F065FDFFF7CFFE012001F039FA91
:10382000FBE7000008B50268034B9A4200D008BDD0
:10383000FCF7E8FDFBE700BF00100040FEE70000DA
:1038400008B50A480A4B03600A4B436000238360B3
:10385000C3604FF48042026143618361C3610362CC
:10386000FDF7EEF800B908BDFFF7E8FFA040002023
:1038700000540040A086010008B50D480D4B0360C0
:103880004FF48273436000238360C360036143612C
:103890004FF400728261C3610362436283620A2350
:1038A000C362FEF7AFF900B908BDFFF7C7FF00BF5D
:1038B00070410020003C004000B585B01248134B19
:1038C0000360002343608360036183610362C3621A
:1038D0000F4A8262C3600122C26103634261FCF746
:1038E0004FFE68B903230093012301930023029341
:1038F00069460548FCF76EFE20B905B05DF804FB8B
:10390000FFF79CFFFFF79AFF1042002000220140C2
:103910000100000F00B585B01248134B036000236F
:1039200043608360036183610362C3620F4A826202
:10393000C3600122C26103634261FCF721FE68B9E2
:103940000323009301230193002302936946054852
:10395000FCF740FE20B905B05DF804FBFFF76EFFF1
:10396000FFF76CFF58400020002101400100000FCC
:1039700000B58DB017484FF08043036000234360CB
:103980008360C3600361FEF789FCD8B90CA94FF4CA
:10399000805341F8103D0F48FEF78DFAA0B900237F
:1039A0000393049303A90B48FEF709FB70B90023A6
:1039B0000193029301A90748FEF748FD40B90DB0F5
:1039C0005DF804FBFFF73AFFFFF738FFFFF736FF1C
:1039D000FFF734FF9842002000B593B02348244BF2
:1039E0000360002343608360C3600361FEF756FCFD
:1039F00000282FD112A94FF4805341F8103D1B48E5
:103A0000FEF759FA40BB1948FEF761FC30BB0523AD
:103A1000099300230A9309A91448FEF7D0FAF8B9CC
:103A200000230793089307A91048FEF70FFDC8B9B4
:103A300060230093002301930293049304226946B8
:103A40000A48FEF795FC78B9084800F089FB13B0E6
:103A50005DF804FBFFF7F2FEFFF7F0FEFFF7EEFE66
:103A6000FFF7ECFEFFF7EAFEFFF7E8FE3441002027
:103A70000004004008B50D480D4B03604FF48273FD
:103A8000436000238360C360036143614FF40072AD
:103A90008261C3610362436283620A23C362FEF7E9
:103AA000B1F800B908BDFFF7C9FE00BFC43F002050
:103AB0000038004008B50A480A4B03604FF4E13370
:103AC000436000238360C36003610C224261836111
:103AD000C361FEF7B5FE00B908BDFFF7AFFE00BF3A
:103AE000D44200200044004000B58DB01748184B68
:103AF0000360002343608360C3600361FEF7CEFB75
:103B0000D8B90CA94FF4805341F8103D0F48FEF787
:103B1000D2F9A0B900230393049303A90B48FEF73D
:103B20004EFA70B900230193029301A90748FEF7EA
:103B30008DFC40B90DB05DF804FBFFF77FFEFFF789
:103B40007DFEFFF77BFEFFF779FE00BFF44000200B
:103B5000000C004000B59BB03348344B0360002399
:103B600043608360C36003614361FEF797FB0028F5
:103B70004AD11AA94FF4805341F8103D2A48FEF764
:103B80009AF9002842D12848FEF7A1FB00283FD12E
:103B9000052311930023129311A92348FEF70FFA6E
:103BA000002837D100230F9310930FA91E48FEF76A
:103BB0004DFC002830D160230893002209920A921C
:103BC0000B920C920D920E9208A91748FEF7D0FBAB
:103BD00020BB082208A91448FEF7CAFB00BB00233B
:103BE000019302930393049305934FF400520692BA
:103BF000079301A90C48FEF752FC98B90A4800F057
:103C0000AFFA1BB05DF804FBFFF718FEFFF716FED6
:103C1000FFF714FEFFF712FEFFF710FEFFF70EFE90
:103C2000FFF70CFEFFF70AFE5C4200200000014097
:103C300000B593B02348244B0360002343608360A6
:103C4000C3600361FEF72AFB00282FD112A94FF4AD
:103C5000805341F8103D1B48FEF72DF940BB194831
:103C6000FEF735FB30BB0523099300230A9309A90E
:103C70001448FEF7A4F9F8B900230793089307A99D
:103C80001048FEF7E3FBC8B96023009300230193BB
:103C900002930493082269460A48FEF769FB78B943
:103CA000084800F05DFA13B05DF804FBFFF7C6FDAD
:103CB000FFF7C4FDFFF7C2FDFFF7C0FDFFF7BEFD34
:103CC000FFF7BCFD1C4000200008004000B585B097
:103CD0001248134B036000234360836003618361D8
:103CE0000362C3620F4A8262C3600122C26103633E
:103CF0004261FCF745FC68B910230093012301934E
:103D00000023029369460548FCF764FC20B905B01E
:103D10005DF804FBFFF792FDFFF790FDC84100201E
:103D2000002001400100000F00B595B00022019273
:103D3000274B196C41F0805119641B6C03F08053C0
:103D40000193019B0292234B196841F48041196051
:103D50001B6803F480430293029B02230893012112
:103D60000B9110210C910E930F9208221092602259
:103D7000119212930423139308A8FDF703FC10BBC0
:103D80000F2303930021049105914FF4A053069350
:103D90004FF48053079303A8FDF716FEA8B9FDF76B
:103DA000E1FE0D4BA3FB00308009FCF72BFD042046
:103DB000FCF73EFD00220F214FF0FF30FCF7E4FC42
:103DC00015B05DF804FBFFF739FDFFF737FD00BFC5
:103DD0000038024000700040D34D621000B595B02D
:103DE000FCF7F6FAFFF7A0FFFFF7E8FBFFF728FD67
:103DF000FFF742FDFFF760FDFFF78CFDFFF7B8FD11
:103E0000FFF7EAFDFFF736FEFFF754FEFFF76CFE03
:103E1000FFF7A0FEFFF70CFFFFF758FF1A4C0FAD9E
:103E200026460FCE0FC533682B6000210FA800F087
:103E300016FF164B18600AAD04F114060FCE0FC51D
:103E400033682B6000210AA800F009FF104B1860AE
:103E500005AD04F128060FCE0FC533682B60002195
:103E600005A800F0FCFE0B4B18606D463C340FCCEF
:103E70000FC523682B600021684600F0F0FE064B5A
:103E8000186000F0E7FEFEE784690008BC3F0020F0
:103E9000C03F0020304100201443002008B503201B
:103EA000FCF760FC002211466FF00B00FCF76CFC85
:103EB000002211466FF00A00FCF766FC0022114652
:103EC0006FF00900FCF760FC002211466FF004005F
:103ED000FCF75AFC002211466FF00300FCF754FC7B
:103EE00000220F216FF00100FCF74EFC00220F2191
:103EF0004FF0FF30FCF748FC08BD000000B589B06A
:103F00000368274A934208D0264A93421BD0264A88
:103F100093422ED009B05DF804FB00210091234BA1
:103F20005A6C42F480725A645B6C03F480730093A1
:103F3000009B0823039303230493059103A91C48C2
:103F4000FCF786FCE6E700210191184B5A6C42F41D
:103F500000725A645B6C03F400730193019B0823A5
:103F6000039303230493059103A91148FCF770FC04
:103F7000D0E7002102910D4B5A6C42F480625A64E2
:103F80005B6C03F480630293029B08230393032377
:103F90000493059103A90648FCF75AFCBAE700BF51
:103FA0000020014000210140002201400038024071
:103FB000000002400268124B9A4200D0704700B5E0
:103FC00087B0C02301931223029301230393032399
:103FD0000493042305930DEB03010A48FCF738FC16
:103FE00000230093084B1A6C42F400121A641B6CF5
:103FF00003F400130093009B07B05DF804FB00BFBF
:1040000000540040000402400038024000B589B06E
:1040100003681F4A934205D01E4A93421DD009B03F
:104020005DF804FB002101911B4B1A6C42F48042A5
:104030001A641B6C03F480430193019B4FF46043AB
:104040000393022304930591032306930523079307
:1040500003A91248FCF7FCFBE1E7002102910E4B9B
:104060001A6C42F400421A641B6C03F4004302937E
:10407000029B4FF4E053039302230493059103231F
:1040800006930623079303A90548FCF7E1FBC6E75F
:1040900000380040003C004000380240000402406C
:1040A0000008024086B00368284A93420DD0B3F15D
:1040B000804F17D0264A934221D0264A93422BD0D4
:1040C000254A934235D006B0704700230193234B15
:1040D0005A6C42F001025A645B6C03F001030193D5
:1040E000019BF0E7002302931C4B1A6C42F0010283
:1040F0001A641B6C03F001030293029BE3E70023A5
:104100000393164B1A6C42F002021A641B6C03F004
:1041100002030393039BD6E7002304930F4B1A6C0F
:1041200042F004021A641B6C03F004030493049B22
:10413000C9E700230593094B1A6C42F008021A6480
:104140001B6C03F008030593059BBCE700000140CE
:104150000004004000080040000C0040003802400D
:1041600000B587B003681B4A934208D01A4A9342AD
:1041700014D01A4A93421ED007B05DF804FB4FF4E6
:10418000A06301930223029300230393049301236A
:10419000059301A91248FCF75BFBEDE7802301932F
:1041A00002230293002203920492059301A90C4872
:1041B000FCF74EFBE0E74FF48043019302230293A8
:1041C000002203920492059301A90648FCF740FBE4
:1041D000D2E700BF0000014000040040000800409A
:1041E00000000240000C02400268114B9A4200D0CD
:1041F000704700B587B0002300930E4B1A6C42F451
:1042000000321A641B6C03F400330093009B60239C
:1042100001930223029301230393032304930723AF
:10422000059301A90448FCF713FB07B05DF804FBF4
:104230000044004000380240000C024010B588B035
:10424000002201463620FCF79FFA3620FCF7CEFA12
:1042500000240194144B1A6C42F010021A641B6C77
:1042600003F010030193019B02A903A8FDF7ACFC26
:10427000FDF77EFC43000D48A0FB03239B0C013B94
:104280000B480C4A026040F2E732C26043600461AE
:104290008460FEF703F810B1012008B010BD044897
:1042A000FDF7FCFDF9E700BF0038024083DE1B4349
:1042B000184300200010004008B500F0F3FC08BDD2
:1042C00008B50248FDF79FFE08BD00BF1843002057
:1042D00008B50248FCF71EFD08BD00BF8045002060
:1042E00010B5094C00220949204601F0BBF80849E5
:1042F000204601F0CEF80749204601F0A3FD2046F4
:1043000001F0CEF810BD00BF544300202000002073
:104310005800002010000020002070470020704747
:1043200010B5054C0146204601F09BFD204601F0EA
:10433000B5FD002010BD00BF5443002010B5074C50
:1043400000220749204601F084FD0649204601F07D
:1043500088FD204601F0A2FD002010BD544300203E
:104360007C45002078450020094BD3F81832D3F85B
:1043700014320BB10120704710B50A460146044CB7
:10438000204601F066FD204601F071FD10BD00BF22
:10439000544300200368B3F1A04F00D0704730B5FC
:1043A00087B04FF400730193002402940394154DD9
:1043B00001A92846FCF74CFA4FF4C053019302239D
:1043C0000293039404940A23059301A92846FCF759
:1043D0003FFA0D4B5A6B42F080025A6300945A6CBC
:1043E00042F480425A645B6C03F480430093009B68
:1043F000224605214320FCF7C7F94320FCF7F6F9D4
:1044000007B030BD000002400038024008B500F59A
:104410006F71D0F8EC0301F05CF808BD08B5C1EB92
:10442000C10293000344D3F80422D0F8EC0301F056
:104430007DF808BD08B5C1EBC102930003445A6C76
:10444000D0F8EC0301F0A7F808BD08B5D0F8EC03EC
:1044500001F02BF908BD10B50446C3684BB101212A
:10446000D4F8EC0301F00FF9D4F8EC0301F0ECF808
:1044700010BD0021F4E7000010B50446D0F8EC03AD
:1044800001F004F92268D2F8003E43F00103C2F8BB
:10449000003E236A23B1034A136943F00603136104
:1044A00010BD00BF00ED00E008B5D0F8EC0301F04E
:1044B000F6F808BD08B5D0F8EC0301F006F908BD20
:1044C00008B5D0F8EC0301F0FEF808BD08B5D0F847
:1044D000EC0301F0FCF808BD08B5D0F8EC0301F0DE
:1044E000F8F808BD03780BB10020704710B50346FB
:1044F0001648C0F8EC33C3F820024FF0A043036025
:10450000042343600222C26000230361436182618D
:10451000C361036243620122C2620363FCF774FB5E
:1045200080B90A4C80212046FDF728F8402200215E
:104530002046FCF7FFFF802201212046FCF7FAFF0E
:10454000002010BDFFF77AF9EBE700BF804500209F
:1045500008B5D0F82002FCF7C7FB18B1022803D039
:10456000022008BD002008BD012008BD10B51C4672
:1045700013462246D0F82002FCF7C0FE18B10228EC
:1045800003D0022010BD002010BD012010BD08B5D1
:10459000D0F82002FCF7E6FE18B1022803D0022072
:1045A00008BD002008BD012008BD08B5D0F82002D4
:1045B000FCF762FF18B1022803D0022008BD0020DA
:1045C00008BD012008BD08B5D0F82002FCF787FF20
:1045D00018B1022803D0022008BD002008BD012028
:1045E00008BDD0F8203211F0800F08D101F07F0112
:1045F000C1EBC1018A00134493F8FA01704701F03E
:104600007F01C1EBC1018A00134493F83A0070475F
:1046100008B5D0F82002FCF75FFE18B1022803D0DD
:10462000022008BD002008BD012008BD08B5D0F853
:104630002002FCF7F8FE18B1022803D0022008BDC2
:10464000002008BD012008BD08B5D0F82002FCF705
:10465000B4FE18B1022803D0022008BD002008BD16
:10466000012008BD08B5D0F82002FCF7D3FE08BD34
:1046700012230B80004870473C00002004230B806D
:10468000004870475000002008B50A4628B1054987
:10469000054801F089FA034808BD0249024801F0C3
:1046A00083FAF8E770490020406A000810B5044C0E
:1046B0000A462146034801F077FA204610BD00BFA4
:1046C000704900202C6A000808B50A4628B105493F
:1046D000054801F069FA034808BD0249024801F0A3
:1046E00063FAF8E770490020586A000808B50A46DE
:1046F00028B10549054801F057FA034808BD0249A9
:10470000024801F051FAF8E770490020106A0008E9
:1047100008B50A4628B10549054801F045FA03489D
:1047200008BD0249024801F03FFAF8E7704900204D
:104730001C6A0008124A12F0070F1ED0D11D21F08A
:104740000701C1F5705313440A460E480260002168
:1047500041601344083B23F007030B480360596092
:104760001960991A51601360084B1960084B196061
:104770004FF00042074B1A6070474FF47053E4E764
:10478000600200206C3E00205C020020683E002099
:10479000643E0020603E002010B4134B1A68824231
:1047A0001BD359685C18A04203D14068014459608A
:1047B000184641684418A24213D10C4C2468A24206
:1047C0000DD05268114441601A6812680260984224
:1047D00000D018605DF8044B70471346DEE70460B4
:1047E000F5E70260F3E700BF6C3E00205C020020AA
:1047F00070B5044600F058FC3A4B1B68BBB13A4B0D
:104800001B681C4263D1ACB1083414F0070F11D0FF
:1048100024F00704083404F007035BB14FF05003A1
:1048200083F31188BFF36F8FBFF34F8FFEE7FFF75E
:1048300081FFE4E7002C4CD02C4B1B689C424AD8EB
:104840002B4B1D6801E02B4615466A68944202D93D
:104850002A68002AF7D1234A126895423DD01E6883
:1048600008362A681A606B681B1B102B10D9281990
:1048700010F0070F08D04FF0500383F31188BFF3F7
:104880006F8FBFF34F8FFEE743606C60FFF784FFCD
:104890006A6816490B689B1A0B60164909688B42B7
:1048A00001D214490B60104B1B6813436B6000234B
:1048B0002B6000F091FC16F0070F10D04FF0500362
:1048C00083F31188BFF36F8FBFF34F8FFEE700268E
:1048D000EFE70026EDE70026EBE70026E9E73046A4
:1048E00070BD00BF5C020020603E0020643E0020DE
:1048F0006C3E0020683E002080B338B50446A0F12D
:10490000080550F8042C164909680A4208D14FF0EE
:10491000500383F31188BFF36F8FBFF34F8FFEE710
:1049200050F8080C40B14FF0500383F31188BFF3E7
:104930006F8FBFF34F8FFEE722EA010244F8042C89
:1049400000F0B2FB54F8041C064A13680B441360D1
:104950002846FFF721FF00F03FFC38BD704700BF3D
:10496000603E0020643E00200B4B1B68B3F1FF3F0C
:1049700008D04FF0500383F31188BFF36F8FBFF35C
:104980004F8FFEE74FF0500383F31188BFF36F8F13
:10499000BFF34F8FFEE700BF5400002006480068B9
:1049A000006880F3088862B661B6BFF34F8FBFF32B
:1049B0006F8F00DF00BF000008ED00E0DFF80C00A3
:1049C000016841F4700101607047000088ED00E06B
:1049D0004FF0807340F8043C21F0010140F8081CBE
:1049E000054B40F80C3C40F8202C6FF0020340F8D7
:1049F000243C4438704700BF6949000800000000AB
:104A0000074B19680868B0E8F04F80F30988BFF3D6
:104A10006F8F4FF0000080F311887047AFF3008074
:104A20007C3E00204FF0500383F31188BFF36F8F5B
:104A3000BFF34F8F0A4A136801331360012B0DD166
:104A4000084B1B6813F0FF0F08D04FF0500383F39F
:104A50001188BFF36F8FBFF34F8FFEE7704700BF22
:104A60005400002004ED00E0094B1B6843B94FF0EF
:104A7000500383F31188BFF36F8FBFF34F8FFEE7AF
:104A8000013B034A13600BB983F31188704700BFE1
:104A900054000020000000000000000000000000A2
:104AA000EFF30980BFF36F8F154B1A681EF0100FDC
:104AB00008BF20ED108A20E9F04F10604DF8043D4A
:104AC0004FF0500080F31188BFF34F8FBFF36F8F0B
:104AD00000F06AFC4FF0000080F3118808BC1968F0
:104AE0000868B0E8F04F1EF0100F08BFB0EC108A55
:104AF00080F30988BFF36F8F704700BFAFF300806A
:104B00007C3E002008B54FF0500383F31188BFF3BB
:104B10006F8FBFF34F8F00F0CFFA18B14FF0805274
:104B2000024B1A60002383F3118808BD04ED00E0F6
:104B3000064B1B68064AA2FB03239B09013B054A5F
:104B400013600722044B1A60704700BF0C0000205E
:104B5000D34D621014E000E010E000E0314B1A6821
:104B6000314B9A421AD02F4B1A68304B9A421ED0C2
:104B700000B583B02E4B1A78D2B20192FF221A7080
:104B80001B78DBB28DF803309DF8033003F050033F
:104B9000284A13700722284B1A601BE04FF050037D
:104BA00083F31188BFF36F8FBFF34F8FFEE74FF092
:104BB000500383F31188BFF36F8FBFF34F8FFEE76E
:104BC0001D4A1368013B13609DF803305B00DBB2A4
:104BD0008DF803309DF8033013F0800FF0D1164AA2
:104BE00013681B0203F4E0631360019BDBB2104AFD
:104BF0001370124B1A6842F470021A601A6842F07D
:104C000070421A60FFF794FF00220D4B1A60FFF705
:104C1000D5FE0C4A136843F040431360FFF7BEFE15
:104C2000FFF7A2FE00ED00E071C20F4170C20F411C
:104C300000E400E0743E0020783E002020ED00E01B
:104C40005400002034EF00E0842801D00330704786
:104C50000020704708B500F0E9F9002008BDF0B564
:104C600085B00F46446805680669B0F90800FFF78B
:104C7000EBFF03AB019300903B46B2B229462046BE
:104C800000F0A2F9012802D1039805B0F0BD002080
:104C9000FBE708B5034600B90123184600F01AFBEC
:104CA000002008BD08B500F0CDFB012801D0FFF7BA
:104CB00029FF08BD00F1080343604FF0FF32826016
:104CC000C3600361002303607047002303617047E2
:104CD00043684B609A688A609A685160996008617D
:104CE000036801330360704730B40D68B5F1FF3FCE
:104CF00002D000F1080202E0026904E01A4653689B
:104D00001C68A542FAD253684B6099608A60516072
:104D1000086103680133036030BC7047036942686F
:104D2000816891608268416851605A68904205D0FC
:104D300000220261186801381860704782685A6062
:104D4000F6E700000A4B1B681B684BB901234BB9FF
:104D5000074B1B68DB68DB685A68064B1A607047B4
:104D60000023F4E74FF0FF32024B1A60704700BF98
:104D7000803E0020583F002010B50446006BFFF72E
:104D8000BBFD2046FFF7B8FD10BD2DE9F047814679
:104D90000D4617469A46089EDDF824800A9C92002C
:104DA000A521206B01F0B5F8236B07F18042013A91
:104DB00003EB820727F0070700230F2B07D8E956DC
:104DC000E21882F83410EA560AB10133F5E70023FD
:104DD00084F84330062E00D90626E662E6640025F4
:104DE0002565201DFFF771FF04F11800FFF76DFF27
:104DF0002461C6F10706A6616462656584F85850AF
:104E0000524649463846FFF7E3FD2060B8F1000FEF
:104E100001D0C8F80040BDE8F087000038B5002494
:104E200007E004EB840293000E481844FFF742FFAA
:104E30000134062CF5D90C4D2846FFF73BFF0B4CEF
:104E40002046FFF737FF0A48FFF734FF0948FFF70E
:104E500031FF0948FFF72EFF084B1D60084B1C600F
:104E600038BD00BF883E00202C3F0020403F00207E
:104E7000603F00208C3F0020783F0020803E0020D3
:104E8000843E002010B50446FFF7CCFD214A13688C
:104E900001331360204B1B68002B32D01F4B1B6863
:104EA0003BB91D4B1B68DA6AE36A9A4201D81A4B78
:104EB0001C601B4A1368013313606364E36A0122B8
:104EC0009A401849086802430A6003EB83039A007A
:104ED000211D15481044FFF7FBFEFFF7C5FD0F4BE2
:104EE0001B686BB10C4B1B68DA6AE36A9A4207D203
:104EF0004FF080520D4B1A60BFF34F8FBFF36F8F8F
:104F000010BD054B1C601368012BD2D1FFF786FF43
:104F1000CFE700BF143F00207C3E0020743F0020FC
:104F2000243F0020283F0020883E002004ED00E0C0
:104F300070B504460E461D4B1D681D4B18680430A5
:104F4000FFF7ECFE50B91A4B1B68DA6A012303FA2B
:104F500002F218490B6823EA02030B60B4F1FF3F29
:104F600013D02C44124B1B685C60A54216D8124B20
:104F700018680F4B19680431FFF7B6FE0F4B1B681A
:104F80009C4201D20D4B1C6070BD002EE9D0084B35
:104F9000196804310A48FFF79BFE70BD094B186879
:104FA000034B19680431FFF79FFE70BDA03F00203E
:104FB0007C3E0020283F0020803E0020583F0020FB
:104FC000783F0020843E00202DE9F04385B006465E
:104FD0000F46154698469000FFF70AFC00B381463D
:104FE0005C20FFF705FC0446B0B1C0F83090CCB1AE
:104FF0000023039302940D9B01930C9B0093434663
:105000002A4639463046FFF7C0FE2046FFF73AFFF2
:10501000012005B0BDE8F0834846FFF76DFCE6E7E8
:105020000024E4E74FF0FF30F3E7000000B583B061
:10503000174B019300230093802216491648FFF76F
:10504000C3FF012805D0B0F1FF3F17D003B05DF8D2
:1050500004FB4FF0500383F31188BFF36F8FBFF34E
:105060004F8F4FF0FF320D4B1A6001220C4B1A602C
:1050700000220C4B1A60FFF771FDE7E74FF0500379
:1050800083F31188BFF36F8FBFF34F8FFEE700BF2D
:10509000543F0020686A000881530008583F0020F0
:1050A000743F0020A03F0020024A136801331360C0
:1050B000704700BF203F0020F8B53C4B1B68002B19
:1050C00068D13B4B1D6801351D60C5B9394B1B6864
:1050D0001B6843B14FF0500383F31188BFF36F8F08
:1050E000BFF34F8FFEE7334A1168334B18681060E7
:1050F0001960324A136801331360FFF723FE304B07
:105100001B689D423AD200242E4B1B68DB6A03EBDE
:1051100083039A002C4B9B58012B40D901243EE07D
:105120000124244B1B681B6853B3002353BB214B42
:105130001B68DB68DE6873689D4228D3371D3846DC
:10514000FFF7ECFDB36A1BB106F11800FFF7E6FDAF
:10515000F36A01229A401D49086802430A6003EB82
:1051600083039A00394618481044FFF7B1FDF26AEC
:10517000144B1B68DB6A9A42D2D2D2E70024D0E7F4
:105180000123D3E74FF0FF320D4B1A60BCE70C4A06
:105190001360B9E70E4A13680133136000240D4B06
:1051A0001B6803B101242046F8BD00BF203F00204A
:1051B000A03F0020803E0020843E00205C3F002075
:1051C000583F00207C3E0020883E0020283F0020E1
:1051D0001C3F0020A43F002038B5354B1B6843B965
:1051E0004FF0500383F31188BFF36F8FBFF34F8FDE
:1051F000FEE7FFF717FC2E4B1A68013A1A601B688E
:10520000002B50D12B4B1B6823B90024FFF72CFC3B
:10521000204638BD0024284B1B681BB3264BDB6897
:10522000DC6804F11800FFF779FD251D2846FFF71B
:1052300075FDE36A01229A402049086802430A602A
:1052400003EB83039A0029461D481044FFF740FDF5
:10525000E26A1C4B1B68DB6A9A42DCD301221A4BC0
:105260001A60D8E70CB1FFF76DFD184B1C6874B9D4
:10527000154B1B68CBB14FF08052154B1A60BFF332
:105280004F8FBFF36F8F0124C0E7013C07D0FFF7BA
:1052900013FF0028F9D001220B4B1A60F5E700221A
:1052A0000A4B1A60E4E70024B0E70024AEE700BF31
:1052B000203F0020143F0020603F0020283F0020B6
:1052C000883E00207C3E0020A43F00201C3F0020A0
:1052D00004ED00E010B5A8B10446104B1B6843B1C3
:1052E0004FF0500383F31188BFF36F8FBFF34F8FDD
:1052F000FEE7FFF7D9FE00212046FFF719FEFFF772
:105300006BFF00E0002038B94FF08052044B1A6068
:10531000BFF34F8FBFF36F8F10BD00BF203F002042
:1053200004ED00E0134B1B6813B310B5FFF7BCFE90
:10533000114B1C68FFF750FF24B90E4B1B68002B64
:10534000F4D110BDFFF76EFB0B4BDB68DC68201D52
:10535000FFF7E4FC094A1368013B1360054A136830
:10536000013B1360FFF780FB2046FFF705FDE4E7F4
:10537000704700BF183F00208C3F0020143F0020E2
:1053800008B5FFF7CFFF064B1B68012BF9D94FF08B
:105390008052044B1A60BFF34F8FBFF36F8FF0E75B
:1053A000883E002004ED00E0214B1B68C3B90022B9
:1053B000204B1A60204B1B68B3FA83F3DBB2C3F1B6
:1053C0001F0303EB83018A001C498A5862B94FF01E
:1053D000500383F31188BFF36F8FBFF34F8FFEE746
:1053E0000122144B1A60704710B414489A00D41864
:1053F000A10001444C6864684C601A449100083173
:10540000084484420BD003EB83039A000B4B1344F4
:105410005B68DA680A4B1A605DF8044B7047606895
:1054200003EB83029100054A0A445060EBE700BF9A
:10543000203F0020A43F0020283F0020883E00207D
:105440007C3E0020054B1B6823B1054B1B681BB934
:10545000022070470120704700207047743F0020F1
:10546000203F002098B108B50346D0F8140210B1CF
:105470000020C3F8140209B1C3F810121846012322
:1054800080F8FC310270FFF72DF8002008BD0220E3
:10549000704719B1C0F814120020704702207047FD
:1054A00008B5FFF755F8002008BD08B5D0F814324C
:1054B00023B11B68984718B1022008BD022008BD1F
:1054C000002008BD08B5D0F814325B68984700206A
:1054D00008BD38B5044600F50275284600F01EF9EF
:1054E0000123C4F8F431B4F80E32C4F8F83194F85A
:1054F000081201F01F03012B0ED03BB1022B10D07C
:1055000001F080012046FFF750F803E029462046CD
:1055100000F07EFA002038BD2946204600F09CFAB3
:10552000F8E72946204600F0B3FAF3E710B5044641
:1055300019BB1346D0F8F421032A27D1D0F80C1157
:10554000D0F8102191420BD8D0F814321B691BB14E
:1055500090F8FC21032A0ED0204600F06EFB15E0E7
:10556000891AC0F80C118A4228BF0A4692B219461D
:1055700000F05BFB0AE09847EEE70A46D0F81432E9
:105580009B691BB190F8FC11032901D0002010BDCC
:1055900011469847FAE710B50446002947D113464B
:1055A000D0F8F421022A05D094F80032012B3AD029
:1055B000002010BDC169026A914217D88169B1FB10
:1055C000F2F302FB13132BB98A4203D8D0F8F83157
:1055D000994218D3D4F81432DB681BB194F8FC213B
:1055E000032A1DD0204600F033FBDDE78A1AC26192
:1055F00092B2194600F002FB00231A4619462046D3
:10560000FFF722F8D0E70022114600F0F7FA002158
:10561000C4F8F8110B460A462046FFF715F8C3E711
:1056200020469847DEE7002384F80032C0E70A46A8
:10563000D0F814325B69002BBAD090F8FC11032922
:10564000B6D111469847B3E738B504464023002247
:105650001146FEF78BFF4025C4F810512B4600225F
:1056600080212046FEF782FF2562012384F8FC3169
:10567000D4F818322BB1D4F814325B682179204663
:105680009847002038BD01740020704790F8FC3125
:1056900080F8FD31042380F8FC310020704790F839
:1056A000FD3180F8FC310020704708B590F8FC31DE
:1056B000032B01D0002008BDD0F81432DB69002B89
:1056C000F8D09847F6E70020704700207047002088
:1056D000704708B5012280F8FC21D0F814225268E6
:1056E00001799047002008BD002302E00133DBB2BE
:1056F00001300278002AF9D1184670474B88012BF7
:1057000000D0704710B50446C0F80432D0F8143207
:105710009B689847204600F090FA10BD0B78037004
:105720004B7843708B78CA7803EB022343800B7964
:105730004A7903EB022383808B79CA7903EB022336
:10574000C380704710B504468021FEF72EFF00216C
:105750002046FEF72AFF10BD30B583B004460D4643
:105760004A88130A013B062B00F28180DFE803F030
:105770000413277F7F637000D0F810321B680DF18F
:105780000601007C9847BDF8062012B1EB88002B7B
:1057900071D103B030BD037C43B9D0F814329B6A99
:1057A0000DF10600984702234370ECE7D0F814325D
:1057B000DB6A0DF10600984702234370E3E7D2B29B
:1057C000052A34D8DFE802F0030B131B232BD0F893
:1057D00010325B680DF10601007C9847D3E7D0F8E2
:1057E00010329B680DF10601007C9847CBE7D0F89A
:1057F0001032DB680DF10601007C9847C3E7D0F852
:1058000010321B690DF10601007C9847BBE7D0F808
:1058100010325B690DF10601007C9847B3E7D0F8C0
:1058200010329B690DF10601007C9847ABE72946D1
:10583000FFF788FFADE7037C33B9D0F814325B6B18
:105840000DF1060098479EE72946FFF77BFFA0E78A
:10585000037C43B9D0F814321B6B0DF10600984756
:10586000072343708FE72946FFF76CFF91E729462E
:10587000FFF768FF8DE79A4228BF1A46ADF8062069
:105880000146204600F0ADF983E738B504468B8821
:10589000E3B9CB88D3B98D7805F07F0590F8FC315A
:1058A000032B0CD080F8FE512946FEF7B1FE2046AE
:1058B00000F0C3F935B1022384F8FC3138BDFFF79D
:1058C00041FF38BD012384F8FC3138BD2046FFF785
:1058D00039FF38BD38B504460D468978254B197017
:1058E000012909D890F8FC31022B09D0032B1CD0D8
:1058F0002946FFF727FF38BD2946FFF723FF38BDAC
:1059000081B14160032380F8FC31FFF7CEFD02280E
:1059100003D0204600F091F938BD29462046FFF714
:1059200011FF38BD00F089F938BD89B1436899424B
:105930001DD0D9B2FFF7C6FD0E4B19786160204625
:10594000FFF7B3FD02280DD0204600F076F938BDF0
:10595000022380F8FC314160FFF7B4FD204600F0DF
:105960006CF938BD29462046FFF7ECFE38BD00F043
:1059700064F938BDA83F002008B5CB88012B08D1B9
:1059800090F8FC31022B07D0032B0DD0FFF7DAFE85
:1059900008BDFFF7D7FE08BD0146002341F8083FC8
:1059A000012200F01EF908BD0122011D00F019F9C5
:1059B00008BD08B590F8FC31023B012B0CD801233F
:1059C000C360D0F804320BB10323C360022200F19C
:1059D0000C0100F006F908BDFFF7B4FE08BD10B5D4
:1059E000044690F8FC31023B012B0ED84B88012B6A
:1059F00000D010BD0023C0F80432D0F814329B68E8
:105A00009847204600F019F910BDFFF79BFEF0E71C
:105A100008B54B78092B1CD8DFE803F012181B15CA
:105A20001B09051B0F0CFFF797FE002008BDFFF7B1
:105A30002CFFFAE7FFF74EFFF7E7FFF79DFFF4E7CC
:105A4000FFF7B7FFF1E7FFF759FEEEE7FFF7C7FFF4
:105A5000EBE7FFF777FEE8E738B504460D4690F828
:105A6000FC31032B11D10B79012B03D9FFF76AFE0F
:105A7000002038BDD0F814329B689847EB88002B83
:105A8000F6D1204600F0D9F8F2E7FFF75BFEEFE72A
:105A900038B505460C468A880B7803F06003202B46
:105AA00011D0D1B26378012B2BD0002B4DD0032B1A
:105AB0000DD190F8FC31022B0BD0032B10D02146D6
:105AC000FFF740FE03E0D0F814329B6898470020AF
:105AD00038BD0029FBD08029F9D0FEF766FDF6E736
