:020000040800F2
:1000000000000220B9020008BF020008C302000875
:10001000DB020008DF020008F70200080000000011
:100020000000000000000000000000000F030008B6
:10003000130300080000000017030008091100085E
:1000400029030008290300082903000829030008E0
:1000500029030008290300082903000829030008D0
:1000600029030008290300082903000829030008C0
:1000700029030008290300082903000829030008B0
:1000800029030008290300082903000829030008A0
:100090002903000829030008290300082903000890
:1000A0002903000829030008290300082903000880
:1000B0002903000829030008290300082903000870
:1000C0002903000829030008290300082903000860
:1000D0002903000829030008290300082903000850
:1000E0002903000829030008290300082903000840
:1000F0002903000829030008290300082903000830
:10010000290300082903000829030008290300081F
:10011000290300082903000829030008290300080F
:1001200029030008290300082903000829030008FF
:1001300029030008290300082903000829030008EF
:1001400029030008290300082903000829030008DF
:1001500029030008290300082903000829030008CF
:1001600029030008290300082903000829030008BF
:1001700029030008290300082903000800000000E3
:10018000290300082903000800B583B000F0EEFE43
:10019000384B394A1360394A1360394906E011680F
:1001A0001960043304329842F9D82146354B9942FC
:1001B00005D20A684B6801F10C048868F3E72E4BFE
:1001C0001A68314B9A4200D0FEE72C4B1A682F4B2D
:1001D0009A42F9D1274B2E4A13602E4A13602E4BB8
:1001E00005E00020106004329342FAD80B462B4AF7
:1001F000934204D2194651F8082B5B68F4E7244B6C
:100200001B6813B9234B1B6803B1FEE700F0D0FF56
:10021000694601A800F09EFE214B224CE41AA4106E
:100220000025AC4214DC204B204CE41AA41000251D
:10023000AC4213DC0099019800F0C2FF05461C4B4C
:100240001C4CE41AA410002C0EDC284600F07CFEA6
:10025000134B53F8253098470135E2E7124B53F81A
:10026000253098470135E3E7013C114B53F8243022
:100270009847E8E7BABADECA000000201000002064
:100280002C03000844030008785634123254769840
:100290001400002024000020440300085403000838
:1002A00054030008540300085403000854030008D2
:1002B000540300085403000808B5FFF765FF00BEAB
:1002C000FEE71EF0040F0CBFEFF30880EFF3098088
:1002D0007146124A104700BEFEE700BEFEE71EF060
:1002E000040F0CBFEFF30880EFF3098071460C4A4E
:1002F000104700BEFEE71EF0040F0CBFEFF30880AE
:10030000EFF309807146074A104700BEFEE700BEC2
:10031000FEE700BEFEE700BEFEE77047D70200081A
:0C032000F30200080B03000800BEFEE71B
:10032C00BC1200080000002014000020BC120008C1
:10033C000000001000000010140000202800002015
:08034C00000000100000001089
:1003540010B50446074B1868074BA3FB003080090F
:1003640000F096F8002221464FF0FF3000F04CF8E0
:10037400002010BD0C000020D34D621008B50B4BBB
:100384001A6842F400721A601A6842F480621A60B1
:100394001A6842F480721A60032000F017F80F20E4
:1003A400FFF7D6FF00F02CFF002008BD003C024000
:1003B400024A136801331360704700BF1C00002019
:1003C400014B1868704700BF1C00002010B504469C
:1003D400C31E042B0FD80A4AD36823F4E0631B041A
:1003E4001B0C240204F4E064234343F0BF6343F48E
:1003F4000033D36010BDA421024800F0B1FDEAE748
:1004040000ED00E00812000870B505460C461646DB
:100414000F2A24D80F2C27D81A4BDB68C3F30223E6
:10042400C3F10702042A28BF0422191D062920D972
:10043400033B012101FA02F2013A14409C4001FA03
:1004440003F3013B33401C43002D14DB2401E4B2CD
:1004540005F1604505F5614585F8004370BDBC2193
:10046400094800F07DFDD5E7BD21074800F078FD7F
:10047400D2E70023DDE705F00F052401E4B2034BC6
:100484005C5570BD00ED00E00812000814ED00E0BA
:100494000138B0F1807F0AD2064B5860F021064A39
:1004A40082F823100020986007221A607047012008
:1004B400704700BF10E000E000ED00E010B5044616
:1004C400042800D038B9042C0BD0094A136823F04F
:1004D4000403136010BD40F2B311064800F040FD60
:1004E400F1E7034A136843F00403136010BD00BF2F
:1004F40010E000E0081200082DE9F04782B08046C1
:100504000F46B54B984223D003F5806398421FD021
:1005140003F5806398421BD003F58063984217D09B
:1005240003F58063984213D003F5806398420FD09B
:1005340003F5806398420BD003F58063984207D09B
:1005440003F58063984203D0C521A44800F008FD58
:100554003B8853B37B68012B22D9112B20D0022B6B
:100564001ED0122B1CD09E4A934219D002F5801241
:10057400934215D002F58012934211D0A2F5F812DD
:1005840093420DD002F58012934209D002F58012F5
:10059400934205D0032B03D0C721904800F0E0FC20
:1005A400BB68022B06D800257AE0C6218B4800F0F0
:1005B400D7FCCFE7C821894800F0D2FCF3E73B69B8
:1005C400FBB1092B1DD0012B1BD0022B19D0032BFF
:1005D40017D0042B15D0052B13D0062B11D0072BC5
:1005E4000FD0082B0DD00A2B0BD00B2B09D00C2BC2
:1005F40007D00D2B05D00F2B03D0D921774800F05D
:10060400AFFCE908083158F8213005F007029200E0
:100614000F20904023EA0003386900FA02F21343E2
:1006240048F821304CE0EC216C4800F099FC63E080
:10063400082100E00021A1400A430233694941F83E
:100644002320694B1A686FEA090302EA03017868F8
:1006540010F4803F01D049EA0201634A11605268F4
:1006640003EA0201786810F4003F01D049EA02016C
:100674005D4A5160926803EA0201786810F4801FB1
:1006840001D049EA0201584A9160D268134079685E
:1006940011F4001F01D049EA0203534AD360013523
:1006A4000F2D00F296800124AC403B6804EA030954
:1006B4004C45F4D17B68022B81D0122B3FF47FAFE1
:1006C400D8F800304FEA450A032606FA0AF6F6433C
:1006D40033407A6802F0030202FA0AF21343C8F8BC
:1006E40000307B685A1E012A03D9112B01D0122B2A
:1006F40016D1FB68032B96D8D8F808303340FA6833
:1007040002FA0AF21343C8F80830D8F8043023EA8E
:1007140004047B68C3F30013AB401C43C8F80440D3
:10072400D8F80C301E40BB6803FA0AF31E43C8F81D
:100734000C607B6813F0805FB1D0002301932B4BD6
:100744005A6C42F480425A645B6C03F48043019314
:10075400019BAB08991C234A52F8212005F00301A0
:100764008C000F21A14022EA01021B4880453FF47E
:1007740061AF1F4988451ED001F5806188451CD0B2
:1007840001F5806188451AD001F58061884518D04B
:1007940001F58061884516D001F58061884514D043
:1007A40001F58061884512D001F5806188453FF4E8
:1007B4003FAF09213FE701213DE702213BE7032148
:1007C40039E7042137E7052135E7062133E7072117
:1007D40031E702B0BDE8F087000002403C12000897
:1007E4000000111000380140003C01400038024074
:1007F4000004024070B5064615460C4651B1012D61
:1008040004D94FF4D971074800F0AAFB45B9240470
:10081400B46170BD40F2B111024800F0A1FBEEE7F3
:10082400B46170BD3C12000830B583B0044603685F
:100834000F2B2DD8236813F0010F3CD06368012BD4
:1008440005D9052B03D0FA219F4800F089FB9F4B63
:100854009B6803F00C03042B24D09C4B9B6803F08F
:100864000C03082B19D02279994B1A706368002B5A
:1008740050D0FFF7A5FD0546944B1B6813F4003FC9
:1008840019D1FFF79DFD401B6428F5D90320D7E15A
:10089400F5218D4800F064FBCCE78C4B5B6813F4C6
:1008A400800FE0D0894B1B6813F4003F03D06368CA
:1008B400002B00F0C281236813F0020F5CD0E368C0
:1008C400012B04D94FF496717F4800F049FB23694A
:1008D4001F2B2ED87D4B9B6813F00C0F34D07B4B11
:1008E4009B6803F00C03082B29D0E368002B72D01B
:1008F4000122784B1A60FFF763FD0546734B1B68B2
:1009040013F0020F58D1FFF75BFD401B0228F5D905
:10091400032095E1FFF754FD05466C4B1B6813F467
:10092400003FC8D0FFF74CFD401B6428F5D90320D5
:1009340086E140F22D11644800F012FBCAE7634BD4
:100944005B6813F4800FD0D1604B1B6813F0020F67
:1009540004D0E368012B01D0012071E15B480368F6
:1009640023F0F8032169F82292FAA2F2B2FA82F291
:1009740001FA02F213430360236813F0080F4ED008
:100984006369012B04D940F26D114F4800F0E8FA75
:10099400636993B30122504B1A60FFF711FD0546BA
:1009A4004A4B5B6F13F0020F39D1FFF709FD401B6F
:1009B4000228F5D9032043E14448036823F0F803EF
:1009C4002169F82292FAA2F2B2FA82F201FA02F250
:1009D40013430360D0E700223E4B1A60FFF7F0FC9C
:1009E40005463A4B1B6813F0020FC5D0FFF7E8FC2D
:1009F400401B0228F5D9032022E10022364B1A605D
:100A0400FFF7DEFC0546314B5B6F13F0020F06D097
:100A1400FFF7D6FC401B0228F5D9032010E1236818
:100A240013F0040F5ED0A368012B06D9052B04D064
:100A340040F29711244800F093FA00230193234BCA
:100A44001A6C42F080521A641B6C03F080530193B9
:100A5400019B224A136843F480731360FFF7B0FCD0
:100A640005461E4B1B6813F4807F06D1FFF7A8FCD4
:100A7400401B0228F5D90320E2E0227A184B1A70B1
:100A8400A36883B1FFF79CFC0546104B1B6F13F062
:100A9400020F27D1FFF794FC401B41F288339842A0
:100AA400F3D90320CCE0FFF78BFC0546074B1B6F03
:100AB40013F0020F16D0FFF783FC401B41F288337A
:100AC4009842F3D90320BBE07C12000800380240AE
:100AD4000238024000004742800E47420070004046
:100AE40070380240A369022B1FD8A369002B00F0C1
:100AF400A680554A926802F00C02082A00F0A280EF
:100B0400022B18D00022514B1A60FFF759FC0446FF
:100B14004D4B1B6813F0007F00F08D80FFF750FCF5
:100B2400001B0228F4D903208AE04FF4E6714848F8
:100B340000F016FAD9E7E3693BB1B3F5800F04D0AE
:100B440040F2D511424800F00BFA236A3F2B28D813
:100B5400636A323BB3F5BF7F29D8A36A022B0AD05C
:100B6400042B08D0062B06D0082B04D04FF4EC71CC
:100B7400374800F0F5F9E36A043B0B2B1DD800223B
:100B8400324B1A60FFF71CFC05462F4B1B6813F011
:100B9400007F18D0FFF714FC401B0228F5D903206E
:100BA4004EE04FF4EB712A4800F0DAF9D0E740F256
:100BB400D711274800F0D4F9CFE740F2D9112448DF
:100BC40000F0CEF9DBE7E369226A1343616A47F672
:100BD400C07292FAA2F2B2FA82F201FA02F213435A
:100BE400A26A5208013A4FF4403191FAA1F1B1FAE4
:100BF40081F18A401343E16A4FF0706292FAA2F2E3
:100C0400B2FA82F201FA02F213430F4A536001224C
:100C14000E4B1A60FFF7D4FB04460B4B1B6813F012
:100C2400007F06D1FFF7CCFB001B0228F5D9032077
:100C340006E0002004E0002002E0012000E00020A3
:100C440003B030BD0120FBE700380240600047429A
:100C54007C120008214B9B6803F00C03042B3AD050
:100C6400082B01D01E4870471C4B586800F03F0009
:100C74005B6813F4800F1ED01A4AB2FBF0F2174BD4
:100C8400586847F6C073184093FAA3F3B3FA83F392
:100C9400D84000FB02F0114B5B6803F440334FF47F
:100CA400403292FAA2F2B2FA82F2D34001335B00EC
:100CB400B0FBF3F070470A4AB2FBF0F2074B5868F6
:100CC40047F6C073184093FAA3F3B3FA83F3D840FA
:100CD40000FB02F0DFE70348704700BF0038024022
:100CE4000024F40000127A0070B504460D4603682F
:100CF400013B0E2B11D8072D15D88A4B1B6803F026
:100D04000F039D4215D9EBB2864A1370136803F0A2
:100D14000F039D420DD0012070BD40F2372182485F
:100D240000F01EF9E7E74FF40E717F4800F018F960
:100D3400E3E7236813F0020F1DD0A368A3B1802B4F
:100D440012D0902B10D0A02B0ED0B02B0CD0C02BD7
:100D54000AD0D02B08D0E02B06D0F02B04D040F2E0
:100D64004F21714800F0FCF8704A936823F0F003B7
:100D7400A1680B439360236813F0010F6DD063687F
:100D8400032B29D86368012B2CD09A1E012A30D951
:100D9400664A126812F0020F00F0C28063498A6842
:100DA40022F0030213438B60FFF70AFB06466368D5
:100DB400012B25D0022B32D0032B3FD05B4B9B68F9
:100DC40013F00C0F49D0FFF7FBFA801B41F2883374
:100DD4009842F3D9032070BD40F25621524800F0E6
:100DE400BFF8CFE7514A126812F4003FD6D1012070
:100DF40070BD4E4A126812F0007FCFD1012070BD41
:100E04004A4B9B6803F00C03042B26D0FFF7D8FA57
:100E1400801B41F288339842F2D9032070BD434BC2
:100E24009B6803F00C03082B17D0FFF7C9FA801B4B
:100E340041F288339842F2D9032070BD3B4B9B6842
:100E440003F00C030C2B08D0FFF7BAFA801B41F215
:100E540088339842F2D9032070BD324B1B6803F0EB
:100E64000F039D4209D2EAB22E4B1A701B6803F09D
:100E74000F039D4201D0012070BD236813F0040FBD
:100E840019D0E36883B1B3F5805F0DD0B3F5A05FEB
:100E94000AD0B3F5C05F07D0B3F5E05F04D04FF4D8
:100EA4002D71214800F05CF8204A936823F4E05344
:100EB400E1680B439360236813F0080F1AD0236989
:100EC40083B1B3F5805F0DD0B3F5A05F0AD0B3F55D
:100ED400C05F07D0B3F5E05F04D040F2BB211248F5
:100EE40000F03EF8114A936823F46043216943EA11
:100EF400C1039360FFF7AEFE0C4B9B6803F0F00355
:100F0400F02292FAA2F2B2FA82F2D340084AD35CF7
:100F1400D840084B18600F20FFF71AFA002070BD64
:100F2400012070BD003C02407C12000800380240E1
:100F34006C1200080C000020014B1868704700BFB9
:100F44000C000020FEE708B50120FFF7FBFF0000BE
:100F540001230360014B0B60704700BF04000020B5
:100F640008B5FFF7F0FF000008B500F009F8024BE0
:100F7400024A9A6008BD00BF00ED00E000000008CE
:100F84000C4B1A6842F001021A60002199601A6839
:100F940022F0847222F480321A60074A5A601A6876
:100FA40022F480221A60D9604FF00062034B9A60E9
:100FB400704700BF003802401030002400ED00E00C
:100FC400224B9B6803F00C03042B14D0082B16D07F
:100FD4001BB11F4A1F4B1A6002E01D4A1D4B1A60C9
:100FE4001A4B9B68C3F303131B4AD15C194A136859
:100FF400CB4013607047194A164B1A60F0E7134B45
:101004005A685B6803F03F0312F4800F13D0134A4D
:10101400B2FBF3F20D4B5B68C3F3881303FB02F3DB
:101024000A4A5268C2F3014201325200B3FBF2F39E
:10103400084A1360D4E7064AB2FBF3F2034B5B6839
:10104400C3F3881303FB02F3EAE700BF003802404E
:101054000024F4000C000020AC12000800127A00F6
:1010640030B587B00C4A136B43F0040313634FF499
:101074000055019501230293022204920393074C25
:1010840001A92046FFF738FA002229462046FFF737
:10109400B1FB07B030BD00BF003802400008024079
:1010A4000A4B1B680A4AA2FB03239B09013BB3F1C9
:1010B400807F09D2074A5360F021074B83F823103D
:1010C4000023936007231360704700BF0C000020C7
:1010D400D34D621010E000E000ED00E0034B186017
:1010E400024B1B68002BFBD1704700BF200000207F
:1010F400034B1B681BB1024A1368013B1360704722
:101104002000002008B5FFF753F9FFF7F1FF08BDF1
:1011140030B595B000240194214B1A6C42F08052F2
:101124001A641B6C03F080530193019B02941D4BC2
:101134001A6842F480421A601B6803F480430293E5
:10114400029B0123089309934FF480030F93082310
:1011540010934FF4A8731193022512950723139348
:101164000E9508A8FFF760FB0F23039304950594DD
:101174004FF4A05306934FF480530793052103A81B
:10118400FFF7B2FDFFF7D8FE074BA3FB0030800941
:10119400FFF77EF90420FFF791F915B030BD00BFC9
:1011A4000038024000700040D34D621008B5FFF7CC
:1011B400E5F8FFF7ADFFFFF703FF08BD10B5FFF734
:1011C4006FFFFFF74DFF00240DE04FF47A70FFF737
:1011D40085FF00224FF400510848FFF70BFBFA206B
:1011E400FFF77CFF013401224FF400510348FFF75D
:1011F40001FB002CE9D040F2EE20E8E700080240B1
:10120400704700002E2E2F73797374656D2F7372DF
:10121400632F73746D333266342D68616C2F73746D
:101224006D3332663478785F68616C5F636F7274B3
:1012340065782E63000000002E2E2F737973746579
:101244006D2F7372632F73746D333266342D68613E
:101254006C2F73746D3332663478785F68616C5FB9
:101264006770696F2E630000000000000102030430
:1012740001020304060708092E2E2F73797374657F
:101284006D2F7372632F73746D333266342D6861FE
:101294006C2F73746D3332663478785F68616C5F79
:1012A4007263632E63000000000000000000000071
:0812B40001020304060708090A
:1012BC007856341218000020000000000024F400BE
:0412CC00325476988A
:040000050800018965
:00000001FF
